{
  "contractName": "LotteryDApp",
  "abi": [
    {
      "inputs": [
        {
          "internalType": "uint256",
          "name": "_firstDrawTime",
          "type": "uint256"
        }
      ],
      "stateMutability": "nonpayable",
      "type": "constructor"
    },
    {
      "anonymous": false,
      "inputs": [
        {
          "indexed": false,
          "internalType": "uint256",
          "name": "firstPrizeNumber",
          "type": "uint256"
        },
        {
          "indexed": false,
          "internalType": "uint256",
          "name": "secondPrizeNumber",
          "type": "uint256"
        },
        {
          "indexed": false,
          "internalType": "uint256",
          "name": "thirdPrizeNumber",
          "type": "uint256"
        }
      ],
      "name": "DrawExecuted",
      "type": "event"
    },
    {
      "anonymous": false,
      "inputs": [
        {
          "indexed": true,
          "internalType": "address",
          "name": "user",
          "type": "address"
        },
        {
          "indexed": false,
          "internalType": "uint256",
          "name": "ticketNumber",
          "type": "uint256"
        },
        {
          "indexed": false,
          "internalType": "uint256",
          "name": "refundAmount",
          "type": "uint256"
        }
      ],
      "name": "TicketCancelled",
      "type": "event"
    },
    {
      "anonymous": false,
      "inputs": [
        {
          "indexed": true,
          "internalType": "address",
          "name": "buyer",
          "type": "address"
        },
        {
          "indexed": false,
          "internalType": "uint256",
          "name": "ticketNumber",
          "type": "uint256"
        }
      ],
      "name": "TicketPurchased",
      "type": "event"
    },
    {
      "inputs": [],
      "name": "cancellationDeadline",
      "outputs": [
        {
          "internalType": "uint256",
          "name": "",
          "type": "uint256"
        }
      ],
      "stateMutability": "view",
      "type": "function",
      "constant": true
    },
    {
      "inputs": [],
      "name": "cancellationDeadlineOffset",
      "outputs": [
        {
          "internalType": "uint256",
          "name": "",
          "type": "uint256"
        }
      ],
      "stateMutability": "view",
      "type": "function",
      "constant": true
    },
    {
      "inputs": [],
      "name": "developer",
      "outputs": [
        {
          "internalType": "address",
          "name": "",
          "type": "address"
        }
      ],
      "stateMutability": "view",
      "type": "function",
      "constant": true
    },
    {
      "inputs": [],
      "name": "drawExecuted",
      "outputs": [
        {
          "internalType": "bool",
          "name": "",
          "type": "bool"
        }
      ],
      "stateMutability": "view",
      "type": "function",
      "constant": true
    },
    {
      "inputs": [],
      "name": "drawInterval",
      "outputs": [
        {
          "internalType": "uint256",
          "name": "",
          "type": "uint256"
        }
      ],
      "stateMutability": "view",
      "type": "function",
      "constant": true
    },
    {
      "inputs": [],
      "name": "firstPrizeNumber",
      "outputs": [
        {
          "internalType": "uint256",
          "name": "",
          "type": "uint256"
        }
      ],
      "stateMutability": "view",
      "type": "function",
      "constant": true
    },
    {
      "inputs": [
        {
          "internalType": "address",
          "name": "",
          "type": "address"
        }
      ],
      "name": "hasParticipated",
      "outputs": [
        {
          "internalType": "bool",
          "name": "",
          "type": "bool"
        }
      ],
      "stateMutability": "view",
      "type": "function",
      "constant": true
    },
    {
      "inputs": [],
      "name": "lastDrawTime",
      "outputs": [
        {
          "internalType": "uint256",
          "name": "",
          "type": "uint256"
        }
      ],
      "stateMutability": "view",
      "type": "function",
      "constant": true
    },
    {
      "inputs": [
        {
          "internalType": "uint256",
          "name": "",
          "type": "uint256"
        }
      ],
      "name": "participants",
      "outputs": [
        {
          "internalType": "address",
          "name": "",
          "type": "address"
        }
      ],
      "stateMutability": "view",
      "type": "function",
      "constant": true
    },
    {
      "inputs": [],
      "name": "salesCloseTime",
      "outputs": [
        {
          "internalType": "uint256",
          "name": "",
          "type": "uint256"
        }
      ],
      "stateMutability": "view",
      "type": "function",
      "constant": true
    },
    {
      "inputs": [],
      "name": "salesCloseTimeOffset",
      "outputs": [
        {
          "internalType": "uint256",
          "name": "",
          "type": "uint256"
        }
      ],
      "stateMutability": "view",
      "type": "function",
      "constant": true
    },
    {
      "inputs": [],
      "name": "secondPrizeNumber",
      "outputs": [
        {
          "internalType": "uint256",
          "name": "",
          "type": "uint256"
        }
      ],
      "stateMutability": "view",
      "type": "function",
      "constant": true
    },
    {
      "inputs": [],
      "name": "thirdPrizeNumber",
      "outputs": [
        {
          "internalType": "uint256",
          "name": "",
          "type": "uint256"
        }
      ],
      "stateMutability": "view",
      "type": "function",
      "constant": true
    },
    {
      "inputs": [
        {
          "internalType": "uint256",
          "name": "",
          "type": "uint256"
        },
        {
          "internalType": "uint256",
          "name": "",
          "type": "uint256"
        }
      ],
      "name": "ticketOwners",
      "outputs": [
        {
          "internalType": "address",
          "name": "",
          "type": "address"
        }
      ],
      "stateMutability": "view",
      "type": "function",
      "constant": true
    },
    {
      "inputs": [],
      "name": "ticketPrice",
      "outputs": [
        {
          "internalType": "uint256",
          "name": "",
          "type": "uint256"
        }
      ],
      "stateMutability": "view",
      "type": "function",
      "constant": true
    },
    {
      "inputs": [
        {
          "internalType": "address",
          "name": "",
          "type": "address"
        },
        {
          "internalType": "uint256",
          "name": "",
          "type": "uint256"
        }
      ],
      "name": "userTickets",
      "outputs": [
        {
          "internalType": "uint256",
          "name": "",
          "type": "uint256"
        }
      ],
      "stateMutability": "view",
      "type": "function",
      "constant": true
    },
    {
      "inputs": [
        {
          "internalType": "uint256",
          "name": "_newInterval",
          "type": "uint256"
        }
      ],
      "name": "setDrawInterval",
      "outputs": [],
      "stateMutability": "nonpayable",
      "type": "function"
    },
    {
      "inputs": [
        {
          "internalType": "uint256",
          "name": "_cancellationOffset",
          "type": "uint256"
        }
      ],
      "name": "setCancellationDeadlineOffset",
      "outputs": [],
      "stateMutability": "nonpayable",
      "type": "function"
    },
    {
      "inputs": [
        {
          "internalType": "uint256",
          "name": "_salesCloseOffset",
          "type": "uint256"
        }
      ],
      "name": "setSalesCloseTimeOffset",
      "outputs": [],
      "stateMutability": "nonpayable",
      "type": "function"
    },
    {
      "inputs": [
        {
          "internalType": "uint256",
          "name": "ticketNumber",
          "type": "uint256"
        }
      ],
      "name": "buyTicket",
      "outputs": [],
      "stateMutability": "payable",
      "type": "function",
      "payable": true
    },
    {
      "inputs": [
        {
          "internalType": "uint256",
          "name": "ticketNumber",
          "type": "uint256"
        }
      ],
      "name": "cancelTicket",
      "outputs": [],
      "stateMutability": "nonpayable",
      "type": "function"
    },
    {
      "inputs": [],
      "name": "executeDraw",
      "outputs": [],
      "stateMutability": "nonpayable",
      "type": "function"
    },
    {
      "inputs": [],
      "name": "cancelDraw",
      "outputs": [],
      "stateMutability": "nonpayable",
      "type": "function"
    }
  ],
  "bytecode": "0x60a0604052670de0b6b3a76400006003556102586004556078600655603c6007556000600a60006101000a81548160ff0219169083151502179055503480156200004857600080fd5b5060405162002b2938038062002b2983398181016040528101906200006e919062000154565b3373ffffffffffffffffffffffffffffffffffffffff1660808173ffffffffffffffffffffffffffffffffffffffff1660601b8152505060045481620000b59190620001dd565b600581905550620000cb620000d260201b60201c565b506200026b565b600654600454600554620000e7919062000180565b620000f39190620001dd565b6008819055506007546004546005546200010e919062000180565b6200011a9190620001dd565b6009819055506000600a60006101000a81548160ff021916908315150217905550565b6000815190506200014e8162000251565b92915050565b6000602082840312156200016757600080fd5b600062000177848285016200013d565b91505092915050565b60006200018d8262000218565b91506200019a8362000218565b9250827fffffffffffffffffffffffffffffffffffffffffffffffffffffffffffffffff03821115620001d257620001d162000222565b5b828201905092915050565b6000620001ea8262000218565b9150620001f78362000218565b9250828210156200020d576200020c62000222565b5b828203905092915050565b6000819050919050565b7f4e487b7100000000000000000000000000000000000000000000000000000000600052601160045260246000fd5b6200025c8162000218565b81146200026857600080fd5b50565b60805160601c612875620002b460003960008181610587015281816107e201528181610d6001528181610dfe01528181610ecf01528181611151015261120d01526128756000f3fe6080604052600436106101405760003560e01c8063998ec8da116100b6578063ce88faf81161006f578063ce88faf81461041b578063cea76beb14610446578063cf260baf14610471578063db70051b146104ae578063ee355b1f146104d9578063f5a9d5bb1461050257610140565b8063998ec8da146103095780639cae56ab14610334578063a6259ef11461035d578063b4fb3ee314610388578063bc06c4cc146103c5578063ca4b208b146103f057610140565b80633782377e116101085780633782377e1461022c578063412a616a1461025757806352b6ecc21461026e5780635cbbd6351461029957806367dd74ca146102c4578063951fae0b146102e057610140565b80631209b1f61461014557806313965c4114610170578063205f6b4c146101ad5780632d49a7bf146101d857806335c1d349146101ef575b600080fd5b34801561015157600080fd5b5061015a61052b565b60405161016791906124de565b60405180910390f35b34801561017c57600080fd5b5061019760048036038101906101929190611d68565b610531565b6040516101a491906122e8565b60405180910390f35b3480156101b957600080fd5b506101c261057f565b6040516101cf91906124de565b60405180910390f35b3480156101e457600080fd5b506101ed610585565b005b3480156101fb57600080fd5b5061021660048036038101906102119190611d3f565b61079b565b60405161022391906122e8565b60405180910390f35b34801561023857600080fd5b506102416107da565b60405161024e91906124de565b60405180910390f35b34801561026357600080fd5b5061026c6107e0565b005b34801561027a57600080fd5b50610283610973565b60405161029091906124de565b60405180910390f35b3480156102a557600080fd5b506102ae610979565b6040516102bb91906124de565b60405180910390f35b6102de60048036038101906102d99190611d3f565b61097f565b005b3480156102ec57600080fd5b5061030760048036038101906103029190611d3f565b610d5e565b005b34801561031557600080fd5b5061031e610df6565b60405161032b91906124de565b60405180910390f35b34801561034057600080fd5b5061035b60048036038101906103569190611d3f565b610dfc565b005b34801561036957600080fd5b50610372610e94565b60405161037f9190612303565b60405180910390f35b34801561039457600080fd5b506103af60048036038101906103aa9190611cda565b610ea7565b6040516103bc9190612303565b60405180910390f35b3480156103d157600080fd5b506103da610ec7565b6040516103e791906124de565b60405180910390f35b3480156103fc57600080fd5b50610405610ecd565b60405161041291906122e8565b60405180910390f35b34801561042757600080fd5b50610430610ef1565b60405161043d91906124de565b60405180910390f35b34801561045257600080fd5b5061045b610ef7565b60405161046891906124de565b60405180910390f35b34801561047d57600080fd5b5061049860048036038101906104939190611d03565b610efd565b6040516104a591906124de565b60405180910390f35b3480156104ba57600080fd5b506104c3610f2e565b6040516104d091906124de565b60405180910390f35b3480156104e557600080fd5b5061050060048036038101906104fb9190611d3f565b610f34565b005b34801561050e57600080fd5b5061052960048036038101906105249190611d3f565b61120b565b005b60035481565b6001602052816000526040600020818154811061054d57600080fd5b906000526020600020016000915091509054906101000a900473ffffffffffffffffffffffffffffffffffffffff1681565b60065481565b7f000000000000000000000000000000000000000000000000000000000000000073ffffffffffffffffffffffffffffffffffffffff163373ffffffffffffffffffffffffffffffffffffffff1614610613576040517f08c379a000000000000000000000000000000000000000000000000000000000815260040161060a9061235e565b60405180910390fd5b600454600554610623919061256a565b421015610665576040517f08c379a000000000000000000000000000000000000000000000000000000000815260040161065c9061249e565b60405180910390fd5b6003600b8054905010156106ae576040517f08c379a00000000000000000000000000000000000000000000000000000000081526004016106a5906124be565b60405180910390fd5b600a60009054906101000a900460ff16156106fe576040517f08c379a00000000000000000000000000000000000000000000000000000000081526004016106f5906123de565b60405180910390fd5b61070860016112a3565b600c8190555061071860026112a3565b600d8190555061072860036112a3565b600e819055506001600a60006101000a81548160ff0219169083151502179055507f4c9481c128e237f88a6666e20cf4f11003a4f8edeb4350818d5920286830a904600c54600d54600e5460405161078293929190612522565b60405180910390a1426005819055506107996112f0565b565b600b81815481106107ab57600080fd5b906000526020600020016000915054906101000a900473ffffffffffffffffffffffffffffffffffffffff1681565b60095481565b7f000000000000000000000000000000000000000000000000000000000000000073ffffffffffffffffffffffffffffffffffffffff163373ffffffffffffffffffffffffffffffffffffffff161461086e576040517f08c379a00000000000000000000000000000000000000000000000000000000081526004016108659061235e565b60405180910390fd5b6009544210156108b3576040517f08c379a00000000000000000000000000000000000000000000000000000000081526004016108aa906123be565b60405180910390fd5b6003600b80549050106108fb576040517f08c379a00000000000000000000000000000000000000000000000000000000081526004016108f29061231e565b60405180910390fd5b600a60009054906101000a900460ff161561094b576040517f08c379a00000000000000000000000000000000000000000000000000000000081526004016109429061245e565b60405180910390fd5b6000600b80549050111561096257610961611353565b5b426005819055506109716112f0565b565b600d5481565b60055481565b60095442106109c3576040517f08c379a00000000000000000000000000000000000000000000000000000000081526004016109ba9061247e565b60405180910390fd5b6003543414610a07576040517f08c379a00000000000000000000000000000000000000000000000000000000081526004016109fe9061243e565b60405180910390fd5b60056000803373ffffffffffffffffffffffffffffffffffffffff1673ffffffffffffffffffffffffffffffffffffffff1681526020019081526020016000208054905010610a8b576040517f08c379a0000000000000000000000000000000000000000000000000000000008152600401610a829061239e565b60405180910390fd5b60008110158015610a9e575061270f8111155b610add576040517f08c379a0000000000000000000000000000000000000000000000000000000008152600401610ad49061241e565b60405180910390fd5b610ae7338261148c565b15610b27576040517f08c379a0000000000000000000000000000000000000000000000000000000008152600401610b1e906123fe565b60405180910390fd5b6000803373ffffffffffffffffffffffffffffffffffffffff1673ffffffffffffffffffffffffffffffffffffffff16815260200190815260200160002081908060018154018082558091505060019003906000526020600020016000909190919091505560016000828152602001908152602001600020339080600181540180825580915050600190039060005260206000200160009091909190916101000a81548173ffffffffffffffffffffffffffffffffffffffff021916908373ffffffffffffffffffffffffffffffffffffffff160217905550600260003373ffffffffffffffffffffffffffffffffffffffff1673ffffffffffffffffffffffffffffffffffffffff16815260200190815260200160002060009054906101000a900460ff16610d0d576001600260003373ffffffffffffffffffffffffffffffffffffffff1673ffffffffffffffffffffffffffffffffffffffff16815260200190815260200160002060006101000a81548160ff021916908315150217905550600b339080600181540180825580915050600190039060005260206000200160009091909190916101000a81548173ffffffffffffffffffffffffffffffffffffffff021916908373ffffffffffffffffffffffffffffffffffffffff1602179055505b3373ffffffffffffffffffffffffffffffffffffffff167f0668f5b446eb814fe35b3206f43f14bd8567ba04ddaf7a3ee56516929ab22ccb82604051610d5391906124de565b60405180910390a250565b7f000000000000000000000000000000000000000000000000000000000000000073ffffffffffffffffffffffffffffffffffffffff163373ffffffffffffffffffffffffffffffffffffffff1614610dec576040517f08c379a0000000000000000000000000000000000000000000000000000000008152600401610de39061235e565b60405180910390fd5b8060068190555050565b60085481565b7f000000000000000000000000000000000000000000000000000000000000000073ffffffffffffffffffffffffffffffffffffffff163373ffffffffffffffffffffffffffffffffffffffff1614610e8a576040517f08c379a0000000000000000000000000000000000000000000000000000000008152600401610e819061235e565b60405180910390fd5b8060078190555050565b600a60009054906101000a900460ff1681565b60026020528060005260406000206000915054906101000a900460ff1681565b60045481565b7f000000000000000000000000000000000000000000000000000000000000000081565b600e5481565b60075481565b60006020528160005260406000208181548110610f1957600080fd5b90600052602060002001600091509150505481565b600c5481565b600854421115610f79576040517f08c379a0000000000000000000000000000000000000000000000000000000008152600401610f709061233e565b60405180910390fd5b610f83338261148c565b610fc2576040517f08c379a0000000000000000000000000000000000000000000000000000000008152600401610fb99061237e565b60405180910390fd5b610fcc33826115a3565b610fd6813361179f565b60008060003373ffffffffffffffffffffffffffffffffffffffff1673ffffffffffffffffffffffffffffffffffffffff168152602001908152602001600020805490501480156110705750600260003373ffffffffffffffffffffffffffffffffffffffff1673ffffffffffffffffffffffffffffffffffffffff16815260200190815260200160002060009054906101000a900460ff165b156110d7576000600260003373ffffffffffffffffffffffffffffffffffffffff1673ffffffffffffffffffffffffffffffffffffffff16815260200190815260200160002060006101000a81548160ff0219169083151502179055506110d633611a0a565b5b60006064605a6003546110ea91906125f1565b6110f491906125c0565b9050600081600354611106919061264b565b90503373ffffffffffffffffffffffffffffffffffffffff166108fc839081150290604051600060405180830381858888f1935050505015801561114e573d6000803e3d6000fd5b507f000000000000000000000000000000000000000000000000000000000000000073ffffffffffffffffffffffffffffffffffffffff166108fc829081150290604051600060405180830381858888f193505050501580156111b5573d6000803e3d6000fd5b503373ffffffffffffffffffffffffffffffffffffffff167f974c366c767cf5ead6c60fa164230d2240f71111eefcb11c97cce329365e4d3684846040516111fe9291906124f9565b60405180910390a2505050565b7f000000000000000000000000000000000000000000000000000000000000000073ffffffffffffffffffffffffffffffffffffffff163373ffffffffffffffffffffffffffffffffffffffff1614611299576040517f08c379a00000000000000000000000000000000000000000000000000000000081526004016112909061235e565b60405180910390fd5b8060048190555050565b6000612710424433600b80549050866040516020016112c6959493929190612289565b6040516020818303038152906040528051906020012060001c6112e99190612775565b9050919050565b600654600454600554611303919061256a565b61130d919061264b565b600881905550600754600454600554611326919061256a565b611330919061264b565b6009819055506000600a60006101000a81548160ff021916908315150217905550565b60005b600b8054905081101561147b576000600b828154811061139f577f4e487b7100000000000000000000000000000000000000000000000000000000600052603260045260246000fd5b9060005260206000200160009054906101000a900473ffffffffffffffffffffffffffffffffffffffff16905060008060008373ffffffffffffffffffffffffffffffffffffffff1673ffffffffffffffffffffffffffffffffffffffff1681526020019081526020016000208054905060035461141d91906125f1565b90508173ffffffffffffffffffffffffffffffffffffffff166108fc829081150290604051600060405180830381858888f19350505050158015611465573d6000803e3d6000fd5b5050508080611473906126d4565b915050611356565b50600b600061148a9190611c51565b565b6000806000808573ffffffffffffffffffffffffffffffffffffffff1673ffffffffffffffffffffffffffffffffffffffff16815260200190815260200160002080548060200260200160405190810160405280929190818152602001828054801561151757602002820191906000526020600020905b815481526020019060010190808311611503575b5050505050905060005b81518160ff1610156115965783828260ff168151811061156a577f4e487b7100000000000000000000000000000000000000000000000000000000600052603260045260246000fd5b602002602001015114156115835760019250505061159d565b808061158e9061271d565b915050611521565b5060009150505b92915050565b60008060008473ffffffffffffffffffffffffffffffffffffffff1673ffffffffffffffffffffffffffffffffffffffff168152602001908152602001600020905060008180549050905060005b818110156117985783838281548110611633577f4e487b7100000000000000000000000000000000000000000000000000000000600052603260045260246000fd5b906000526020600020015414156117855782600183611652919061264b565b81548110611689577f4e487b7100000000000000000000000000000000000000000000000000000000600052603260045260246000fd5b90600052602060002001548382815481106116cd577f4e487b7100000000000000000000000000000000000000000000000000000000600052603260045260246000fd5b906000526020600020018190555082805480611712577f4e487b7100000000000000000000000000000000000000000000000000000000600052603160045260246000fd5b60019003818190600052602060002001600090559055600083805490501415611780576000808673ffffffffffffffffffffffffffffffffffffffff1673ffffffffffffffffffffffffffffffffffffffff168152602001908152602001600020600061177f9190611c72565b5b611798565b8080611790906126d4565b9150506115f1565b5050505050565b600060016000848152602001908152602001600020905060008180549050905060005b81811015611a03578373ffffffffffffffffffffffffffffffffffffffff1683828154811061181a577f4e487b7100000000000000000000000000000000000000000000000000000000600052603260045260246000fd5b9060005260206000200160009054906101000a900473ffffffffffffffffffffffffffffffffffffffff1673ffffffffffffffffffffffffffffffffffffffff1614156119f0578260018361186f919061264b565b815481106118a6577f4e487b7100000000000000000000000000000000000000000000000000000000600052603260045260246000fd5b9060005260206000200160009054906101000a900473ffffffffffffffffffffffffffffffffffffffff1683828154811061190a577f4e487b7100000000000000000000000000000000000000000000000000000000600052603260045260246000fd5b9060005260206000200160006101000a81548173ffffffffffffffffffffffffffffffffffffffff021916908373ffffffffffffffffffffffffffffffffffffffff16021790555082805480611989577f4e487b7100000000000000000000000000000000000000000000000000000000600052603160045260246000fd5b6001900381819060005260206000200160006101000a81549073ffffffffffffffffffffffffffffffffffffffff021916905590556000838054905014156119eb576001600086815260200190815260200160002060006119ea9190611c51565b5b611a03565b80806119fb906126d4565b9150506117c2565b5050505050565b6000600b80549050905060005b81811015611c4c578273ffffffffffffffffffffffffffffffffffffffff16600b8281548110611a70577f4e487b7100000000000000000000000000000000000000000000000000000000600052603260045260246000fd5b9060005260206000200160009054906101000a900473ffffffffffffffffffffffffffffffffffffffff1673ffffffffffffffffffffffffffffffffffffffff161415611c3957600b600183611ac6919061264b565b81548110611afd577f4e487b7100000000000000000000000000000000000000000000000000000000600052603260045260246000fd5b9060005260206000200160009054906101000a900473ffffffffffffffffffffffffffffffffffffffff16600b8281548110611b62577f4e487b7100000000000000000000000000000000000000000000000000000000600052603260045260246000fd5b9060005260206000200160006101000a81548173ffffffffffffffffffffffffffffffffffffffff021916908373ffffffffffffffffffffffffffffffffffffffff160217905550600b805480611be2577f4e487b7100000000000000000000000000000000000000000000000000000000600052603160045260246000fd5b6001900381819060005260206000200160006101000a81549073ffffffffffffffffffffffffffffffffffffffff021916905590556000600b805490501415611c3457600b6000611c339190611c51565b5b611c4c565b8080611c44906126d4565b915050611a17565b505050565b5080546000825590600052602060002090810190611c6f9190611c93565b50565b5080546000825590600052602060002090810190611c909190611c93565b50565b5b80821115611cac576000816000905550600101611c94565b5090565b600081359050611cbf81612811565b92915050565b600081359050611cd481612828565b92915050565b600060208284031215611cec57600080fd5b6000611cfa84828501611cb0565b91505092915050565b60008060408385031215611d1657600080fd5b6000611d2485828601611cb0565b9250506020611d3585828601611cc5565b9150509250929050565b600060208284031215611d5157600080fd5b6000611d5f84828501611cc5565b91505092915050565b60008060408385031215611d7b57600080fd5b6000611d8985828601611cc5565b9250506020611d9a85828601611cc5565b9150509250929050565b611dad8161267f565b82525050565b611dc4611dbf8261267f565b612747565b82525050565b611dd381612691565b82525050565b6000611de6602a83612559565b91507f43616e6e6f742063616e63656c20647261773a2033206f72206d6f726520706160008301527f727469636970616e7473000000000000000000000000000000000000000000006020830152604082019050919050565b6000611e4c601b83612559565b91507f43616e63656c6c6174696f6e20706572696f64206973206f76657200000000006000830152602082019050919050565b6000611e8c602583612559565b91507f4f6e6c79207468652061646d696e2063616e2063616c6c20746869732066756e60008301527f6374696f6e0000000000000000000000000000000000000000000000000000006020830152604082019050919050565b6000611ef2601983612559565b91507f596f7520646f6e2774206f776e2074686973207469636b6574000000000000006000830152602082019050919050565b6000611f32601d83612559565b91507f5469636b6574207075726368617365206c696d697420726561636865640000006000830152602082019050919050565b6000611f72602d83612559565b91507f447261772063616e206f6e6c792062652063616e63656c6c656420616674657260008301527f2073616c657320636c6f73652e000000000000000000000000000000000000006020830152604082019050919050565b6000611fd8602483612559565b91507f4472617720616c726561647920657865637574656420666f722074686973207260008301527f6f756e64000000000000000000000000000000000000000000000000000000006020830152604082019050919050565b600061203e602e83612559565b91507f596f75206861766520616c72656164792070757263686173656420746869732060008301527f7469636b6574206e756d6265722e0000000000000000000000000000000000006020830152604082019050919050565b60006120a4602683612559565b91507f5469636b6574206e756d626572206d757374206265206120342d64696769742060008301527f6e756d62657200000000000000000000000000000000000000000000000000006020830152604082019050919050565b600061210a601683612559565b91507f496e636f7272656374207469636b6574207072696365000000000000000000006000830152602082019050919050565b600061214a601e83612559565b91507f447261772068617320616c7265616479206265656e20657865637574656400006000830152602082019050919050565b600061218a601f83612559565b91507f53616c6573206861766520636c6f73656420666f7220746869732064726177006000830152602082019050919050565b60006121ca601c83612559565b91507f447261772063616e6e6f74206265206578656375746564207965742e000000006000830152602082019050919050565b600061220a602b83612559565b91507f4e6f7420656e6f756768207061727469636970616e747320746f20657865637560008301527f74652074686520647261770000000000000000000000000000000000000000006020830152604082019050919050565b61226c816126bd565b82525050565b61228361227e826126bd565b61276b565b82525050565b60006122958288612272565b6020820191506122a58287612272565b6020820191506122b58286611db3565b6014820191506122c58285612272565b6020820191506122d58284612272565b6020820191508190509695505050505050565b60006020820190506122fd6000830184611da4565b92915050565b60006020820190506123186000830184611dca565b92915050565b6000602082019050818103600083015261233781611dd9565b9050919050565b6000602082019050818103600083015261235781611e3f565b9050919050565b6000602082019050818103600083015261237781611e7f565b9050919050565b6000602082019050818103600083015261239781611ee5565b9050919050565b600060208201905081810360008301526123b781611f25565b9050919050565b600060208201905081810360008301526123d781611f65565b9050919050565b600060208201905081810360008301526123f781611fcb565b9050919050565b6000602082019050818103600083015261241781612031565b9050919050565b6000602082019050818103600083015261243781612097565b9050919050565b60006020820190508181036000830152612457816120fd565b9050919050565b600060208201905081810360008301526124778161213d565b9050919050565b600060208201905081810360008301526124978161217d565b9050919050565b600060208201905081810360008301526124b7816121bd565b9050919050565b600060208201905081810360008301526124d7816121fd565b9050919050565b60006020820190506124f36000830184612263565b92915050565b600060408201905061250e6000830185612263565b61251b6020830184612263565b9392505050565b60006060820190506125376000830186612263565b6125446020830185612263565b6125516040830184612263565b949350505050565b600082825260208201905092915050565b6000612575826126bd565b9150612580836126bd565b9250827fffffffffffffffffffffffffffffffffffffffffffffffffffffffffffffffff038211156125b5576125b46127a6565b5b828201905092915050565b60006125cb826126bd565b91506125d6836126bd565b9250826125e6576125e56127d5565b5b828204905092915050565b60006125fc826126bd565b9150612607836126bd565b9250817fffffffffffffffffffffffffffffffffffffffffffffffffffffffffffffffff04831182151516156126405761263f6127a6565b5b828202905092915050565b6000612656826126bd565b9150612661836126bd565b925082821015612674576126736127a6565b5b828203905092915050565b600061268a8261269d565b9050919050565b60008115159050919050565b600073ffffffffffffffffffffffffffffffffffffffff82169050919050565b6000819050919050565b600060ff82169050919050565b60006126df826126bd565b91507fffffffffffffffffffffffffffffffffffffffffffffffffffffffffffffffff821415612712576127116127a6565b5b600182019050919050565b6000612728826126c7565b915060ff82141561273c5761273b6127a6565b5b600182019050919050565b600061275282612759565b9050919050565b600061276482612804565b9050919050565b6000819050919050565b6000612780826126bd565b915061278b836126bd565b92508261279b5761279a6127d5565b5b828206905092915050565b7f4e487b7100000000000000000000000000000000000000000000000000000000600052601160045260246000fd5b7f4e487b7100000000000000000000000000000000000000000000000000000000600052601260045260246000fd5b60008160601b9050919050565b61281a8161267f565b811461282557600080fd5b50565b612831816126bd565b811461283c57600080fd5b5056fea264697066735822122013f682b4496fa301ebb3d8ecccbdf974beabac8b3d0bbaf3d9b34cfd61cbb2aa64736f6c63430008000033",
  "immutableReferences": {
    "17": [
      {
        "length": 32,
        "start": 1415
      },
      {
        "length": 32,
        "start": 2018
      },
      {
        "length": 32,
        "start": 3424
      },
      {
        "length": 32,
        "start": 3582
      },
      {
        "length": 32,
        "start": 3791
      },
      {
        "length": 32,
        "start": 4433
      },
      {
        "length": 32,
        "start": 4621
      }
    ]
  },
  "source": "// SPDX-License-Identifier: MIT\r\npragma solidity ^0.8.0;\r\n\r\ncontract LotteryDApp {\r\n    mapping(address => uint256[]) public userTickets; // Stores the list of tickets for each user\r\n    mapping(uint256 => address[]) public ticketOwners; // Stores the owners for each ticket number\r\n    mapping(address => bool) public hasParticipated; // Tracks if a user has participated in the current draw\r\n\r\n    address public immutable developer; // Developer's address, immutable\r\n    uint256 public ticketPrice = 1 ether; // Price per ticket\r\n    uint256 public drawInterval = 10 minutes; // Interval between draws, default is 10 minutes, admin can change\r\n    uint256 public lastDrawTime; // The time of the last draw (or cancellation time)\r\n    uint256 public cancellationDeadlineOffset = 2 minutes; // Time before the draw when cancellations are allowed\r\n    uint256 public salesCloseTimeOffset = 1 minutes; // Time before the draw when ticket sales close\r\n    uint256 public cancellationDeadline; // Actual cancellation deadline for the current draw\r\n    uint256 public salesCloseTime; // Actual sales close time for the current draw\r\n    bool public drawExecuted = false; // Indicates if the draw has been executed\r\n\r\n    address[] public participants; // Track participants who have purchased tickets\r\n\r\n    uint256 public firstPrizeNumber;\r\n    uint256 public secondPrizeNumber;\r\n    uint256 public thirdPrizeNumber;\r\n\r\n    event TicketPurchased(address indexed buyer, uint256 ticketNumber);\r\n    event TicketCancelled(address indexed user, uint256 ticketNumber, uint256 refundAmount);\r\n    event DrawExecuted(uint256 firstPrizeNumber, uint256 secondPrizeNumber, uint256 thirdPrizeNumber);\r\n\r\n    constructor(uint256 _firstDrawTime) {\r\n        developer = msg.sender;\r\n        lastDrawTime = _firstDrawTime - drawInterval;\r\n        _updateTimesForNextDraw();\r\n    }\r\n\r\n    modifier onlyAdmin() {\r\n        require(msg.sender == developer, \"Only the admin can call this function\");\r\n        _;\r\n    }\r\n\r\n    modifier canExecuteDraw() {\r\n        require(block.timestamp >= lastDrawTime + drawInterval, \"Draw cannot be executed yet.\");\r\n        require(participants.length >= 3, \"Not enough participants to execute the draw\");\r\n        require(!drawExecuted, \"Draw already executed for this round\");\r\n        _;\r\n    }\r\n\r\n    // Admin can change the draw interval, which will take effect on the next draw\r\n    function setDrawInterval(uint256 _newInterval) external onlyAdmin {\r\n        drawInterval = _newInterval;\r\n    }\r\n\r\n    // Admin can change the cancellation deadline offset for future draws\r\n    function setCancellationDeadlineOffset(uint256 _cancellationOffset) external onlyAdmin {\r\n        cancellationDeadlineOffset = _cancellationOffset;\r\n    }\r\n\r\n    // Admin can change the sales close time offset for future draws\r\n    function setSalesCloseTimeOffset(uint256 _salesCloseOffset) external onlyAdmin {\r\n        salesCloseTimeOffset = _salesCloseOffset;\r\n    }\r\n\r\n    // Function to buy a ticket\r\n    function buyTicket(uint256 ticketNumber) external payable {\r\n        require(block.timestamp < salesCloseTime, \"Sales have closed for this draw\");\r\n        require(msg.value == ticketPrice, \"Incorrect ticket price\");\r\n        require(userTickets[msg.sender].length < 5, \"Ticket purchase limit reached\");\r\n        require(ticketNumber >= 0 && ticketNumber <= 9999, \"Ticket number must be a 4-digit number\");\r\n        require(!_hasUserPurchasedTicket(msg.sender, ticketNumber), \"You have already purchased this ticket number.\");\r\n\r\n        // Add the ticket to the user's tickets and ticketOwners\r\n        userTickets[msg.sender].push(ticketNumber);\r\n        ticketOwners[ticketNumber].push(msg.sender);\r\n\r\n        // If this is the user's first ticket, increase the unique participant count\r\n        if (!hasParticipated[msg.sender]) {\r\n            hasParticipated[msg.sender] = true;\r\n            participants.push(msg.sender);\r\n        }\r\n\r\n        emit TicketPurchased(msg.sender, ticketNumber);\r\n    }\r\n\r\n    // Function to cancel a purchased ticket\r\n    function cancelTicket(uint256 ticketNumber) external {\r\n        require(block.timestamp <= cancellationDeadline, \"Cancellation period is over\");\r\n        require(_hasUserPurchasedTicket(msg.sender, ticketNumber), \"You don't own this ticket\");\r\n\r\n        _removeUserTicket(msg.sender, ticketNumber);\r\n        _removeTicketOwner(ticketNumber, msg.sender);\r\n\r\n        // Adjust the unique participant count if the user has no more tickets\r\n        if (userTickets[msg.sender].length == 0 && hasParticipated[msg.sender]) {\r\n            hasParticipated[msg.sender] = false;\r\n            _removeParticipant(msg.sender);\r\n        }\r\n\r\n        // Calculate the refund (90% refund, 10% to the developer)\r\n        uint256 refundAmount = (ticketPrice * 90) / 100;\r\n        uint256 developerFee = ticketPrice - refundAmount;\r\n\r\n        // Transfer the refund to the user\r\n        payable(msg.sender).transfer(refundAmount);\r\n\r\n        // Send the 10% penalty to the developer\r\n        payable(developer).transfer(developerFee);\r\n\r\n        emit TicketCancelled(msg.sender, ticketNumber, refundAmount);\r\n    }\r\n\r\n    // Function to execute the lottery draw\r\n    function executeDraw() external onlyAdmin canExecuteDraw {\r\n        // Generate the winning numbers using block properties\r\n        firstPrizeNumber = _generateRandomNumber(1);\r\n        secondPrizeNumber = _generateRandomNumber(2);\r\n        thirdPrizeNumber = _generateRandomNumber(3);\r\n\r\n        // Set the draw as executed\r\n        drawExecuted = true;\r\n\r\n        // Emit event to record the draw results\r\n        emit DrawExecuted(firstPrizeNumber, secondPrizeNumber, thirdPrizeNumber);\r\n\r\n        lastDrawTime = block.timestamp; // Set lastDrawTime to current time\r\n        _updateTimesForNextDraw(); // Schedule next draw\r\n    }\r\n\r\n    // Function to cancel the draw if fewer than 3 participants\r\n    function cancelDraw() external onlyAdmin {\r\n        require(block.timestamp >= salesCloseTime, \"Draw can only be cancelled after sales close.\");\r\n        require(participants.length < 3, \"Cannot cancel draw: 3 or more participants\");\r\n        require(!drawExecuted, \"Draw has already been executed\");\r\n\r\n        if (participants.length > 0) {\r\n            // Refund all participants and cancel the draw\r\n            _refundAllParticipants();\r\n        }\r\n\r\n        lastDrawTime = block.timestamp; // Set lastDrawTime to cancellation time\r\n        _updateTimesForNextDraw(); // Schedule next draw\r\n    }\r\n\r\n    // Helper function to update times for the next draw\r\n    function _updateTimesForNextDraw() private {\r\n        cancellationDeadline = lastDrawTime + drawInterval - cancellationDeadlineOffset;\r\n        salesCloseTime = lastDrawTime + drawInterval - salesCloseTimeOffset;\r\n        drawExecuted = false;\r\n    }\r\n\r\n    // Function to generate a random 4-digit number using block properties\r\n    function _generateRandomNumber(uint256 seed) private view returns (uint256) {\r\n        return uint256(uint256(keccak256(abi.encodePacked(block.timestamp, block.difficulty, msg.sender, participants.length, seed))) % 10000);\r\n    }\r\n\r\n    // Function to refund all participants if the draw is cancelled\r\n    function _refundAllParticipants() private {\r\n        // Loop through all participants and refund them\r\n        for (uint256 i = 0; i < participants.length; i++) {\r\n            address participant = participants[i];\r\n            uint256 refundAmount = ticketPrice * userTickets[participant].length;\r\n            payable(participant).transfer(refundAmount); // Refund the user\r\n        }\r\n\r\n        delete participants; // Clear the participants array\r\n    }\r\n\r\n    // Helper function to check if a user has purchased a specific ticket number\r\n    function _hasUserPurchasedTicket(address user, uint256 ticketNumber) private view returns (bool) {\r\n        uint256[] memory tickets = userTickets[user];\r\n\r\n        for (uint8 i = 0; i < tickets.length; i++) {\r\n            if (tickets[i] == ticketNumber) {\r\n                return true;\r\n            }\r\n        }\r\n        return false;\r\n    }\r\n\r\n    // Helper function to remove a ticket from the user's ticket array\r\n    function _removeUserTicket(address user, uint256 ticketNumber) private {\r\n        uint256[] storage tickets = userTickets[user];\r\n        uint256 length = tickets.length;\r\n\r\n        for (uint256 i = 0; i < length; i++) {\r\n            if (tickets[i] == ticketNumber) {\r\n                tickets[i] = tickets[length - 1]; // Replace with last element\r\n                tickets.pop(); // Remove the last element\r\n                if (tickets.length == 0) {\r\n                    delete userTickets[user];\r\n                }\r\n                break;\r\n            }\r\n        }\r\n    }\r\n\r\n    // Helper function to remove a user from the ticketOwners mapping for a specific ticket number\r\n    function _removeTicketOwner(uint256 ticketNumber, address user) private {\r\n        address[] storage owners = ticketOwners[ticketNumber];\r\n        uint256 length = owners.length;\r\n\r\n        for (uint256 i = 0; i < length; i++) {\r\n            if (owners[i] == user) {\r\n                owners[i] = owners[length - 1]; // Replace with last element\r\n                owners.pop(); // Remove the last element\r\n                if (owners.length == 0) {\r\n                    delete ticketOwners[ticketNumber];\r\n                }\r\n                break;\r\n            }\r\n        }\r\n    }\r\n\r\n    // Helper function to remove a participant from the participants array\r\n    function _removeParticipant(address participant) private {\r\n        uint256 length = participants.length;\r\n\r\n        for (uint256 i = 0; i < length; i++) {\r\n            if (participants[i] == participant) {\r\n                participants[i] = participants[length - 1]; // Replace with last element\r\n                participants.pop(); // Remove the last element\r\n                if (participants.length == 0) {\r\n                    delete participants;\r\n                }\r\n                break;\r\n            }\r\n        }\r\n    }\r\n}\r\n",
  "sourcePath": "C:\\Users\\Pua\\OneDrive\\Desktop\\LotteryTimeLockDApp\\contracts\\LotteryDApp.sol",
  "compiler": {
    "name": "solc",
    "version": "0.8.0+commit.c7dfd78e.Emscripten.clang"
  },
  "schemaVersion": "3.4.16",
  "updatedAt": "2024-09-14T16:52:35.519Z",
  "networkType": "ethereum",
  "devdoc": {
    "kind": "dev",
    "methods": {},
    "version": 1
  },
  "userdoc": {
    "kind": "user",
    "methods": {},
    "version": 1
  }
}