{
  "contractName": "LotteryDApp",
  "abi": [
    {
      "inputs": [
        {
          "internalType": "uint256",
          "name": "_firstDrawTime",
          "type": "uint256"
        }
      ],
      "stateMutability": "nonpayable",
      "type": "constructor"
    },
    {
      "anonymous": false,
      "inputs": [
        {
          "indexed": false,
          "internalType": "uint256",
          "name": "firstPrizeNumber",
          "type": "uint256"
        },
        {
          "indexed": false,
          "internalType": "uint256",
          "name": "secondPrizeNumber",
          "type": "uint256"
        },
        {
          "indexed": false,
          "internalType": "uint256",
          "name": "thirdPrizeNumber",
          "type": "uint256"
        },
        {
          "indexed": false,
          "internalType": "uint256",
          "name": "drawId",
          "type": "uint256"
        }
      ],
      "name": "DrawExecuted",
      "type": "event"
    },
    {
      "anonymous": false,
      "inputs": [
        {
          "indexed": true,
          "internalType": "uint256",
          "name": "drawId",
          "type": "uint256"
        },
        {
          "indexed": false,
          "internalType": "uint256",
          "name": "prizeTier",
          "type": "uint256"
        },
        {
          "indexed": false,
          "internalType": "uint256",
          "name": "totalPrizeAmount",
          "type": "uint256"
        },
        {
          "indexed": false,
          "internalType": "uint256",
          "name": "winnerCount",
          "type": "uint256"
        }
      ],
      "name": "PrizeTierDistributed",
      "type": "event"
    },
    {
      "anonymous": false,
      "inputs": [
        {
          "indexed": true,
          "internalType": "address",
          "name": "user",
          "type": "address"
        },
        {
          "indexed": false,
          "internalType": "uint256",
          "name": "ticketNumber",
          "type": "uint256"
        },
        {
          "indexed": false,
          "internalType": "uint256",
          "name": "refundAmount",
          "type": "uint256"
        },
        {
          "indexed": false,
          "internalType": "uint256",
          "name": "drawId",
          "type": "uint256"
        }
      ],
      "name": "TicketCancelled",
      "type": "event"
    },
    {
      "anonymous": false,
      "inputs": [
        {
          "indexed": true,
          "internalType": "address",
          "name": "buyer",
          "type": "address"
        },
        {
          "indexed": false,
          "internalType": "uint256",
          "name": "ticketNumber",
          "type": "uint256"
        },
        {
          "indexed": false,
          "internalType": "uint256",
          "name": "drawId",
          "type": "uint256"
        }
      ],
      "name": "TicketPurchased",
      "type": "event"
    },
    {
      "inputs": [],
      "name": "cancellationDeadline",
      "outputs": [
        {
          "internalType": "uint256",
          "name": "",
          "type": "uint256"
        }
      ],
      "stateMutability": "view",
      "type": "function"
    },
    {
      "inputs": [],
      "name": "cancellationDeadlineOffset",
      "outputs": [
        {
          "internalType": "uint256",
          "name": "",
          "type": "uint256"
        }
      ],
      "stateMutability": "view",
      "type": "function"
    },
    {
      "inputs": [],
      "name": "developer",
      "outputs": [
        {
          "internalType": "address",
          "name": "",
          "type": "address"
        }
      ],
      "stateMutability": "view",
      "type": "function"
    },
    {
      "inputs": [],
      "name": "developerFeePercentage",
      "outputs": [
        {
          "internalType": "uint256",
          "name": "",
          "type": "uint256"
        }
      ],
      "stateMutability": "view",
      "type": "function"
    },
    {
      "inputs": [],
      "name": "drawId",
      "outputs": [
        {
          "internalType": "uint256",
          "name": "",
          "type": "uint256"
        }
      ],
      "stateMutability": "view",
      "type": "function"
    },
    {
      "inputs": [],
      "name": "drawInterval",
      "outputs": [
        {
          "internalType": "uint256",
          "name": "",
          "type": "uint256"
        }
      ],
      "stateMutability": "view",
      "type": "function"
    },
    {
      "inputs": [],
      "name": "firstPrizeNumber",
      "outputs": [
        {
          "internalType": "uint256",
          "name": "",
          "type": "uint256"
        }
      ],
      "stateMutability": "view",
      "type": "function"
    },
    {
      "inputs": [],
      "name": "firstPrizePercentage",
      "outputs": [
        {
          "internalType": "uint256",
          "name": "",
          "type": "uint256"
        }
      ],
      "stateMutability": "view",
      "type": "function"
    },
    {
      "inputs": [],
      "name": "lastDrawTime",
      "outputs": [
        {
          "internalType": "uint256",
          "name": "",
          "type": "uint256"
        }
      ],
      "stateMutability": "view",
      "type": "function"
    },
    {
      "inputs": [
        {
          "internalType": "uint256",
          "name": "",
          "type": "uint256"
        },
        {
          "internalType": "address",
          "name": "",
          "type": "address"
        }
      ],
      "name": "participantIndex",
      "outputs": [
        {
          "internalType": "uint256",
          "name": "",
          "type": "uint256"
        }
      ],
      "stateMutability": "view",
      "type": "function"
    },
    {
      "inputs": [
        {
          "internalType": "uint256",
          "name": "",
          "type": "uint256"
        },
        {
          "internalType": "uint256",
          "name": "",
          "type": "uint256"
        }
      ],
      "name": "participants",
      "outputs": [
        {
          "internalType": "address",
          "name": "",
          "type": "address"
        }
      ],
      "stateMutability": "view",
      "type": "function"
    },
    {
      "inputs": [],
      "name": "salesCloseTime",
      "outputs": [
        {
          "internalType": "uint256",
          "name": "",
          "type": "uint256"
        }
      ],
      "stateMutability": "view",
      "type": "function"
    },
    {
      "inputs": [],
      "name": "salesCloseTimeOffset",
      "outputs": [
        {
          "internalType": "uint256",
          "name": "",
          "type": "uint256"
        }
      ],
      "stateMutability": "view",
      "type": "function"
    },
    {
      "inputs": [],
      "name": "secondPrizeNumber",
      "outputs": [
        {
          "internalType": "uint256",
          "name": "",
          "type": "uint256"
        }
      ],
      "stateMutability": "view",
      "type": "function"
    },
    {
      "inputs": [],
      "name": "secondPrizePercentage",
      "outputs": [
        {
          "internalType": "uint256",
          "name": "",
          "type": "uint256"
        }
      ],
      "stateMutability": "view",
      "type": "function"
    },
    {
      "inputs": [],
      "name": "thirdPrizeNumber",
      "outputs": [
        {
          "internalType": "uint256",
          "name": "",
          "type": "uint256"
        }
      ],
      "stateMutability": "view",
      "type": "function"
    },
    {
      "inputs": [],
      "name": "thirdPrizePercentage",
      "outputs": [
        {
          "internalType": "uint256",
          "name": "",
          "type": "uint256"
        }
      ],
      "stateMutability": "view",
      "type": "function"
    },
    {
      "inputs": [
        {
          "internalType": "uint256",
          "name": "",
          "type": "uint256"
        },
        {
          "internalType": "uint256",
          "name": "",
          "type": "uint256"
        },
        {
          "internalType": "uint256",
          "name": "",
          "type": "uint256"
        }
      ],
      "name": "ticketOwners",
      "outputs": [
        {
          "internalType": "address",
          "name": "",
          "type": "address"
        }
      ],
      "stateMutability": "view",
      "type": "function"
    },
    {
      "inputs": [],
      "name": "ticketPrice",
      "outputs": [
        {
          "internalType": "uint256",
          "name": "",
          "type": "uint256"
        }
      ],
      "stateMutability": "view",
      "type": "function"
    },
    {
      "inputs": [],
      "name": "uniqueParticipantsCount",
      "outputs": [
        {
          "internalType": "uint256",
          "name": "",
          "type": "uint256"
        }
      ],
      "stateMutability": "view",
      "type": "function"
    },
    {
      "inputs": [
        {
          "internalType": "uint256",
          "name": "",
          "type": "uint256"
        },
        {
          "internalType": "address",
          "name": "",
          "type": "address"
        },
        {
          "internalType": "uint256",
          "name": "",
          "type": "uint256"
        }
      ],
      "name": "userTickets",
      "outputs": [
        {
          "internalType": "uint256",
          "name": "",
          "type": "uint256"
        }
      ],
      "stateMutability": "view",
      "type": "function"
    },
    {
      "inputs": [
        {
          "internalType": "uint256",
          "name": "newDrawInterval",
          "type": "uint256"
        },
        {
          "internalType": "uint256",
          "name": "newCancellationOffset",
          "type": "uint256"
        },
        {
          "internalType": "uint256",
          "name": "newSalesCloseOffset",
          "type": "uint256"
        }
      ],
      "name": "setDrawAndOffsets",
      "outputs": [],
      "stateMutability": "nonpayable",
      "type": "function"
    },
    {
      "inputs": [
        {
          "internalType": "uint256",
          "name": "newDeveloperFeePercentage",
          "type": "uint256"
        }
      ],
      "name": "setDeveloperFeePercentage",
      "outputs": [],
      "stateMutability": "nonpayable",
      "type": "function"
    },
    {
      "inputs": [
        {
          "internalType": "uint256",
          "name": "newFirstPrizePercentage",
          "type": "uint256"
        },
        {
          "internalType": "uint256",
          "name": "newSecondPrizePercentage",
          "type": "uint256"
        },
        {
          "internalType": "uint256",
          "name": "newThirdPrizePercentage",
          "type": "uint256"
        }
      ],
      "name": "setPrizePercentages",
      "outputs": [],
      "stateMutability": "nonpayable",
      "type": "function"
    },
    {
      "inputs": [
        {
          "internalType": "uint256",
          "name": "ticketNumber",
          "type": "uint256"
        }
      ],
      "name": "buyTicket",
      "outputs": [],
      "stateMutability": "payable",
      "type": "function"
    },
    {
      "inputs": [
        {
          "internalType": "uint256",
          "name": "ticketNumber",
          "type": "uint256"
        }
      ],
      "name": "cancelTicket",
      "outputs": [],
      "stateMutability": "nonpayable",
      "type": "function"
    },
    {
      "inputs": [],
      "name": "executeDraw",
      "outputs": [],
      "stateMutability": "nonpayable",
      "type": "function"
    },
    {
      "inputs": [],
      "name": "cancelDraw",
      "outputs": [],
      "stateMutability": "nonpayable",
      "type": "function"
    }
  ],
  "bytecode": "0x60a0604052670de0b6b3a76400006004556102586005556078600655603c60075560056008556032600955601e600a556014600b553480156200004157600080fd5b5060405162003748380380620037488339818101604052810190620000679190620001a9565b6005544262000077919062000296565b811015620000bc576040517f08c379a0000000000000000000000000000000000000000000000000000000008152600401620000b39062000263565b60405180910390fd5b3373ffffffffffffffffffffffffffffffffffffffff1660808173ffffffffffffffffffffffffffffffffffffffff1660601b8152505060055481620001039190620002f3565b601181905550620001196200012060201b60201c565b50620003cf565b60065460055460115462000135919062000296565b620001419190620002f3565b6012819055506007546005546011546200015c919062000296565b620001689190620002f3565b6013819055506000601081905550600f60008154809291906200018b9062000338565b9190505550565b600081519050620001a381620003b5565b92915050565b600060208284031215620001bc57600080fd5b6000620001cc8482850162000192565b91505092915050565b6000620001e460548362000285565b91507f466972737420647261772074696d65206d75737420626520696e20746865206660008301527f757475726520616e642067726561746572207468616e206f7220657175616c2060208301527f746f20746865206472617720696e74657276616c0000000000000000000000006040830152606082019050919050565b600060208201905081810360008301526200027e81620001d5565b9050919050565b600082825260208201905092915050565b6000620002a3826200032e565b9150620002b0836200032e565b9250827fffffffffffffffffffffffffffffffffffffffffffffffffffffffffffffffff03821115620002e857620002e762000386565b5b828201905092915050565b600062000300826200032e565b91506200030d836200032e565b92508282101562000323576200032262000386565b5b828203905092915050565b6000819050919050565b600062000345826200032e565b91507fffffffffffffffffffffffffffffffffffffffffffffffffffffffffffffffff8214156200037b576200037a62000386565b5b600182019050919050565b7f4e487b7100000000000000000000000000000000000000000000000000000000600052601160045260246000fd5b620003c0816200032e565b8114620003cc57600080fd5b50565b60805160601c6133296200041f60003960008181610687015281816108410152818161091d01528181610f1a0152818161116301528181611338015281816118b20152611a4901526133296000f3fe6080604052600436106101b75760003560e01c8063a49b85cf116100ec578063ca4b208b1161008a578063db70051b11610064578063db70051b146105cf578063e227dbe7146105fa578063eb0e81d414610625578063ee355b1f14610650576101b7565b8063ca4b208b1461054e578063ce88faf814610579578063cea76beb146105a4576101b7565b8063b8b723a6116100c6578063b8b723a614610492578063bc06c4cc146104bb578063bf2ee939146104e6578063c131688814610523576101b7565b8063a49b85cf146103ed578063ace2589514610418578063b858bb6514610455576101b7565b80635cbbd6351161015957806381fb1fb41161013357806381fb1fb41461033157806397349a951461036e578063998ec8da14610399578063a11dec9f146103c4576101b7565b80635cbbd635146102bf57806367dd74ca146102ea5780637862f04c14610306576101b7565b80633782377e116101955780633782377e1461022957806338daefb614610254578063412a616a1461027d57806352b6ecc214610294576101b7565b80631209b1f6146101bc578063205f6b4c146101e75780632d49a7bf14610212575b600080fd5b3480156101c857600080fd5b506101d1610679565b6040516101de9190612f66565b60405180910390f35b3480156101f357600080fd5b506101fc61067f565b6040516102099190612f66565b60405180910390f35b34801561021e57600080fd5b50610227610685565b005b34801561023557600080fd5b5061023e610839565b60405161024b9190612f66565b60405180910390f35b34801561026057600080fd5b5061027b600480360381019061027691906123a7565b61083f565b005b34801561028957600080fd5b5061029261091b565b005b3480156102a057600080fd5b506102a9610a58565b6040516102b69190612f66565b60405180910390f35b3480156102cb57600080fd5b506102d4610a5e565b6040516102e19190612f66565b60405180910390f35b61030460048036038101906102ff91906123a7565b610a64565b005b34801561031257600080fd5b5061031b610eb8565b6040516103289190612f66565b60405180910390f35b34801561033d57600080fd5b506103586004803603810190610353919061245b565b610ebe565b6040516103659190612ccb565b60405180910390f35b34801561037a57600080fd5b50610383610f0c565b6040516103909190612f66565b60405180910390f35b3480156103a557600080fd5b506103ae610f12565b6040516103bb9190612f66565b60405180910390f35b3480156103d057600080fd5b506103eb60048036038101906103e69190612497565b610f18565b005b3480156103f957600080fd5b506104026110f8565b60405161040f9190612f66565b60405180910390f35b34801561042457600080fd5b5061043f600480360381019061043a91906123d0565b6110fe565b60405161044c9190612f66565b60405180910390f35b34801561046157600080fd5b5061047c6004803603810190610477919061240c565b611123565b6040516104899190612f66565b60405180910390f35b34801561049e57600080fd5b506104b960048036038101906104b49190612497565b611161565b005b3480156104c757600080fd5b506104d06112cf565b6040516104dd9190612f66565b60405180910390f35b3480156104f257600080fd5b5061050d60048036038101906105089190612497565b6112d5565b60405161051a9190612ccb565b60405180910390f35b34801561052f57600080fd5b50610538611330565b6040516105459190612f66565b60405180910390f35b34801561055a57600080fd5b50610563611336565b6040516105709190612ccb565b60405180910390f35b34801561058557600080fd5b5061058e61135a565b60405161059b9190612f66565b60405180910390f35b3480156105b057600080fd5b506105b9611360565b6040516105c69190612f66565b60405180910390f35b3480156105db57600080fd5b506105e4611366565b6040516105f19190612f66565b60405180910390f35b34801561060657600080fd5b5061060f61136c565b60405161061c9190612f66565b60405180910390f35b34801561063157600080fd5b5061063a611372565b6040516106479190612f66565b60405180910390f35b34801561065c57600080fd5b50610677600480360381019061067291906123a7565b611378565b005b60045481565b60065481565b7f000000000000000000000000000000000000000000000000000000000000000073ffffffffffffffffffffffffffffffffffffffff163373ffffffffffffffffffffffffffffffffffffffff1614610713576040517f08c379a000000000000000000000000000000000000000000000000000000000815260040161070a90612d26565b60405180910390fd5b6005546011546107239190613037565b421015610765576040517f08c379a000000000000000000000000000000000000000000000000000000000815260040161075c90612ec6565b60405180910390fd5b600360105410156107ab576040517f08c379a00000000000000000000000000000000000000000000000000000000081526004016107a290612f46565b60405180910390fd5b6107b56001611970565b600c819055506107c56002611970565b600d819055506107d56003611970565b600e819055507f6577c80834ca754da633233dd2a49c06143ba0e4333e8323383df0746ded4109600c54600d54600e54600f546040516108189493929190612fe1565b60405180910390a16108286119ba565b42601181905550610837611ae0565b565b60135481565b7f000000000000000000000000000000000000000000000000000000000000000073ffffffffffffffffffffffffffffffffffffffff163373ffffffffffffffffffffffffffffffffffffffff16146108cd576040517f08c379a00000000000000000000000000000000000000000000000000000000081526004016108c490612d26565b60405180910390fd5b6014811115610911576040517f08c379a000000000000000000000000000000000000000000000000000000000815260040161090890612ee6565b60405180910390fd5b8060088190555050565b7f000000000000000000000000000000000000000000000000000000000000000073ffffffffffffffffffffffffffffffffffffffff163373ffffffffffffffffffffffffffffffffffffffff16146109a9576040517f08c379a00000000000000000000000000000000000000000000000000000000081526004016109a090612d26565b60405180910390fd5b6013544210156109ee576040517f08c379a00000000000000000000000000000000000000000000000000000000081526004016109e590612da6565b60405180910390fd5b600360105410610a33576040517f08c379a0000000000000000000000000000000000000000000000000000000008152600401610a2a90612ce6565b60405180910390fd5b60006010541115610a4757610a46611b48565b5b42601181905550610a56611ae0565b565b600d5481565b60115481565b6013544210610aa8576040517f08c379a0000000000000000000000000000000000000000000000000000000008152600401610a9f90612ea6565b60405180910390fd5b6004543414610aec576040517f08c379a0000000000000000000000000000000000000000000000000000000008152600401610ae390612e46565b60405180910390fd5b6005600080600f54815260200190815260200160002060003373ffffffffffffffffffffffffffffffffffffffff1673ffffffffffffffffffffffffffffffffffffffff1681526020019081526020016000208054905010610b83576040517f08c379a0000000000000000000000000000000000000000000000000000000008152600401610b7a90612d86565b60405180910390fd5b60008110158015610b96575061270f8111155b610bd5576040517f08c379a0000000000000000000000000000000000000000000000000000000008152600401610bcc90612e06565b60405180910390fd5b610bdf3382611c96565b15610c1f576040517f08c379a0000000000000000000000000000000000000000000000000000000008152600401610c1690612dc6565b60405180910390fd5b600080600f54815260200190815260200160002060003373ffffffffffffffffffffffffffffffffffffffff1673ffffffffffffffffffffffffffffffffffffffff16815260200190815260200160002081908060018154018082558091505060019003906000526020600020016000909190919091505560016000600f5481526020019081526020016000206000828152602001908152602001600020339080600181540180825580915050600190039060005260206000200160009091909190916101000a81548173ffffffffffffffffffffffffffffffffffffffff021916908373ffffffffffffffffffffffffffffffffffffffff1602179055506001600080600f54815260200190815260200160002060003373ffffffffffffffffffffffffffffffffffffffff1673ffffffffffffffffffffffffffffffffffffffff168152602001908152602001600020805490501415610e635760026000600f548152602001908152602001600020339080600181540180825580915050600190039060005260206000200160009091909190916101000a81548173ffffffffffffffffffffffffffffffffffffffff021916908373ffffffffffffffffffffffffffffffffffffffff16021790555060105460036000600f54815260200190815260200160002060003373ffffffffffffffffffffffffffffffffffffffff1673ffffffffffffffffffffffffffffffffffffffff1681526020019081526020016000208190555060106000815480929190610e5d906131b2565b91905055505b3373ffffffffffffffffffffffffffffffffffffffff167f2a91574e12ad96234e84923e146b0946ecfb871cd8d5534dc1fdcbe87a7c01b382600f54604051610ead929190612f81565b60405180910390a250565b60085481565b60026020528160005260406000208181548110610eda57600080fd5b906000526020600020016000915091509054906101000a900473ffffffffffffffffffffffffffffffffffffffff1681565b600a5481565b60125481565b7f000000000000000000000000000000000000000000000000000000000000000073ffffffffffffffffffffffffffffffffffffffff163373ffffffffffffffffffffffffffffffffffffffff1614610fa6576040517f08c379a0000000000000000000000000000000000000000000000000000000008152600401610f9d90612d26565b60405180910390fd5b600083118015610fb65750600082115b8015610fc25750600081115b611001576040517f08c379a0000000000000000000000000000000000000000000000000000000008152600401610ff890612e26565b60405180910390fd5b818311611043576040517f08c379a000000000000000000000000000000000000000000000000000000000815260040161103a90612de6565b60405180910390fd5b808211611085576040517f08c379a000000000000000000000000000000000000000000000000000000000815260040161107c90612e86565b60405180910390fd5b60648183856110949190613037565b61109e9190613037565b146110de576040517f08c379a00000000000000000000000000000000000000000000000000000000081526004016110d590612f06565b60405180910390fd5b8260098190555081600a8190555080600b81905550505050565b60105481565b6003602052816000526040600020602052806000526040600020600091509150505481565b6000602052826000526040600020602052816000526040600020818154811061114b57600080fd5b9060005260206000200160009250925050505481565b7f000000000000000000000000000000000000000000000000000000000000000073ffffffffffffffffffffffffffffffffffffffff163373ffffffffffffffffffffffffffffffffffffffff16146111ef576040517f08c379a00000000000000000000000000000000000000000000000000000000081526004016111e690612d26565b60405180910390fd5b828210611231576040517f08c379a000000000000000000000000000000000000000000000000000000000815260040161122890612e66565b60405180910390fd5b828110611273576040517f08c379a000000000000000000000000000000000000000000000000000000000815260040161126a90612d66565b60405180910390fd5b8082116112b5576040517f08c379a00000000000000000000000000000000000000000000000000000000081526004016112ac90612f26565b60405180910390fd5b826005819055508160068190555080600781905550505050565b60055481565b600160205282600052604060002060205281600052604060002081815481106112fd57600080fd5b90600052602060002001600092509250509054906101000a900473ffffffffffffffffffffffffffffffffffffffff1681565b60095481565b7f000000000000000000000000000000000000000000000000000000000000000081565b600e5481565b60075481565b600c5481565b600b5481565b600f5481565b6012544211156113bd576040517f08c379a00000000000000000000000000000000000000000000000000000000081526004016113b490612d06565b60405180910390fd5b6113c73382611c96565b611406576040517f08c379a00000000000000000000000000000000000000000000000000000000081526004016113fd90612d46565b60405180910390fd5b6114103382611dba565b61141a8133611f71565b6000806000600f54815260200190815260200160002060003373ffffffffffffffffffffffffffffffffffffffff1673ffffffffffffffffffffffffffffffffffffffff16815260200190815260200160002080549050141561183857600060036000600f54815260200190815260200160002060003373ffffffffffffffffffffffffffffffffffffffff1673ffffffffffffffffffffffffffffffffffffffff1681526020019081526020016000205490506001601054141561155e5760026000600f548152602001908152602001600020805480611524577f4e487b7100000000000000000000000000000000000000000000000000000000600052603160045260246000fd5b6001900381819060005260206000200160006101000a81549073ffffffffffffffffffffffffffffffffffffffff021916905590556117c8565b60026000600f54815260200190815260200160002060016010546115829190613118565b815481106115b9577f4e487b7100000000000000000000000000000000000000000000000000000000600052603260045260246000fd5b9060005260206000200160009054906101000a900473ffffffffffffffffffffffffffffffffffffffff1660026000600f5481526020019081526020016000208281548110611631577f4e487b7100000000000000000000000000000000000000000000000000000000600052603260045260246000fd5b9060005260206000200160006101000a81548173ffffffffffffffffffffffffffffffffffffffff021916908373ffffffffffffffffffffffffffffffffffffffff1602179055508060036000600f548152602001908152602001600020600060026000600f54815260200190815260200160002084815481106116de577f4e487b7100000000000000000000000000000000000000000000000000000000600052603260045260246000fd5b9060005260206000200160009054906101000a900473ffffffffffffffffffffffffffffffffffffffff1673ffffffffffffffffffffffffffffffffffffffff1673ffffffffffffffffffffffffffffffffffffffff1681526020019081526020016000208190555060026000600f548152602001908152602001600020805480611792577f4e487b7100000000000000000000000000000000000000000000000000000000600052603160045260246000fd5b6001900381819060005260206000200160006101000a81549073ffffffffffffffffffffffffffffffffffffffff021916905590555b60036000600f54815260200190815260200160002060003373ffffffffffffffffffffffffffffffffffffffff1673ffffffffffffffffffffffffffffffffffffffff168152602001908152602001600020600090556010600081548092919061183190613188565b9190505550505b60006064605a60045461184b91906130be565b611855919061308d565b90506000816004546118679190613118565b90503373ffffffffffffffffffffffffffffffffffffffff166108fc839081150290604051600060405180830381858888f193505050501580156118af573d6000803e3d6000fd5b507f000000000000000000000000000000000000000000000000000000000000000073ffffffffffffffffffffffffffffffffffffffff166108fc829081150290604051600060405180830381858888f19350505050158015611916573d6000803e3d6000fd5b503373ffffffffffffffffffffffffffffffffffffffff167fb1eb34723e2b96b3a84295697955028f712f8442afabaabe7bea0d7ccee45d0b8484600f5460405161196393929190612faa565b60405180910390a2505050565b600061271042443360105486604051602001611990959493929190612c6c565b6040516020818303038152906040528051906020012060001c6119b39190613229565b9050919050565b600047905060006064600854836119d191906130be565b6119db919061308d565b9050600081836119eb9190613118565b905060006064600954836119ff91906130be565b611a09919061308d565b905060006064600a5484611a1d91906130be565b611a27919061308d565b905060006064600b5485611a3b91906130be565b611a45919061308d565b90507f000000000000000000000000000000000000000000000000000000000000000073ffffffffffffffffffffffffffffffffffffffff166108fc869081150290604051600060405180830381858888f19350505050158015611aad573d6000803e3d6000fd5b50611abc600c548460016121c2565b611aca600d548360026121c2565b611ad8600e548260036121c2565b505050505050565b600654600554601154611af39190613037565b611afd9190613118565b601281905550600754600554601154611b169190613037565b611b209190613118565b6013819055506000601081905550600f6000815480929190611b41906131b2565b9190505550565b60005b601054811015611c9357600060026000600f5481526020019081526020016000208281548110611ba4577f4e487b7100000000000000000000000000000000000000000000000000000000600052603260045260246000fd5b9060005260206000200160009054906101000a900473ffffffffffffffffffffffffffffffffffffffff1690506000806000600f54815260200190815260200160002060008373ffffffffffffffffffffffffffffffffffffffff1673ffffffffffffffffffffffffffffffffffffffff16815260200190815260200160002080549050600454611c3591906130be565b90508173ffffffffffffffffffffffffffffffffffffffff166108fc829081150290604051600060405180830381858888f19350505050158015611c7d573d6000803e3d6000fd5b5050508080611c8b906131b2565b915050611b4b565b50565b600080600080600f54815260200190815260200160002060008573ffffffffffffffffffffffffffffffffffffffff1673ffffffffffffffffffffffffffffffffffffffff168152602001908152602001600020805480602002602001604051908101604052809291908181526020018280548015611d3457602002820191906000526020600020905b815481526020019060010190808311611d20575b5050505050905060005b8151811015611dad5783828281518110611d81577f4e487b7100000000000000000000000000000000000000000000000000000000600052603260045260246000fd5b60200260200101511415611d9a57600192505050611db4565b8080611da5906131b2565b915050611d3e565b5060009150505b92915050565b6000806000600f54815260200190815260200160002060008473ffffffffffffffffffffffffffffffffffffffff1673ffffffffffffffffffffffffffffffffffffffff168152602001908152602001600020905060008180549050905060005b81811015611f6a5783838281548110611e5d577f4e487b7100000000000000000000000000000000000000000000000000000000600052603260045260246000fd5b90600052602060002001541415611f575782600183611e7c9190613118565b81548110611eb3577f4e487b7100000000000000000000000000000000000000000000000000000000600052603260045260246000fd5b9060005260206000200154838281548110611ef7577f4e487b7100000000000000000000000000000000000000000000000000000000600052603260045260246000fd5b906000526020600020018190555082805480611f3c577f4e487b7100000000000000000000000000000000000000000000000000000000600052603160045260246000fd5b60019003818190600052602060002001600090559055611f6a565b8080611f62906131b2565b915050611e1b565b5050505050565b600060016000600f5481526020019081526020016000206000848152602001908152602001600020905060008180549050905060005b818110156121bb578373ffffffffffffffffffffffffffffffffffffffff16838281548110611fff577f4e487b7100000000000000000000000000000000000000000000000000000000600052603260045260246000fd5b9060005260206000200160009054906101000a900473ffffffffffffffffffffffffffffffffffffffff1673ffffffffffffffffffffffffffffffffffffffff1614156121a857826001836120549190613118565b8154811061208b577f4e487b7100000000000000000000000000000000000000000000000000000000600052603260045260246000fd5b9060005260206000200160009054906101000a900473ffffffffffffffffffffffffffffffffffffffff168382815481106120ef577f4e487b7100000000000000000000000000000000000000000000000000000000600052603260045260246000fd5b9060005260206000200160006101000a81548173ffffffffffffffffffffffffffffffffffffffff021916908373ffffffffffffffffffffffffffffffffffffffff1602179055508280548061216e577f4e487b7100000000000000000000000000000000000000000000000000000000600052603160045260246000fd5b6001900381819060005260206000200160006101000a81549073ffffffffffffffffffffffffffffffffffffffff021916905590556121bb565b80806121b3906131b2565b915050611fa7565b5050505050565b600060016000600f548152602001908152602001600020600085815260200190815260200160002080548060200260200160405190810160405280929190818152602001828054801561226a57602002820191906000526020600020905b8160009054906101000a900473ffffffffffffffffffffffffffffffffffffffff1673ffffffffffffffffffffffffffffffffffffffff1681526020019060010190808311612220575b505050505090506000815190506000811115612338576000818561228e919061308d565b905060005b82811015612335578381815181106122d4577f4e487b7100000000000000000000000000000000000000000000000000000000600052603260045260246000fd5b602002602001015173ffffffffffffffffffffffffffffffffffffffff166108fc839081150290604051600060405180830381858888f19350505050158015612321573d6000803e3d6000fd5b50808061232d906131b2565b915050612293565b50505b600f547f32e99a4c236813e094ebc544b9935f02035ce44769ed07b51dc5036d00842be984868460405161236e93929190612faa565b60405180910390a25050505050565b60008135905061238c816132c5565b92915050565b6000813590506123a1816132dc565b92915050565b6000602082840312156123b957600080fd5b60006123c784828501612392565b91505092915050565b600080604083850312156123e357600080fd5b60006123f185828601612392565b92505060206124028582860161237d565b9150509250929050565b60008060006060848603121561242157600080fd5b600061242f86828701612392565b93505060206124408682870161237d565b925050604061245186828701612392565b9150509250925092565b6000806040838503121561246e57600080fd5b600061247c85828601612392565b925050602061248d85828601612392565b9150509250929050565b6000806000606084860312156124ac57600080fd5b60006124ba86828701612392565b93505060206124cb86828701612392565b92505060406124dc86828701612392565b9150509250925092565b6124ef8161314c565b82525050565b6125066125018261314c565b6131fb565b82525050565b6000612519602a83613026565b91507f43616e6e6f742063616e63656c20647261773a2033206f72206d6f726520706160008301527f727469636970616e7473000000000000000000000000000000000000000000006020830152604082019050919050565b600061257f601b83613026565b91507f43616e63656c6c6174696f6e20706572696f64206973206f76657200000000006000830152602082019050919050565b60006125bf602583613026565b91507f4f6e6c79207468652061646d696e2063616e2063616c6c20746869732066756e60008301527f6374696f6e0000000000000000000000000000000000000000000000000000006020830152604082019050919050565b6000612625601983613026565b91507f596f7520646f6e2774206f776e2074686973207469636b6574000000000000006000830152602082019050919050565b6000612665603b83613026565b91507f53616c657320636c6f73652074696d65206f6666736574206d7573742062652060008301527f6c657373207468616e20746865206472617720696e74657276616c00000000006020830152604082019050919050565b60006126cb601d83613026565b91507f5469636b6574207075726368617365206c696d697420726561636865640000006000830152602082019050919050565b600061270b602d83613026565b91507f447261772063616e206f6e6c792062652063616e63656c6c656420616674657260008301527f2073616c657320636c6f73652e000000000000000000000000000000000000006020830152604082019050919050565b6000612771602e83613026565b91507f596f75206861766520616c72656164792070757263686173656420746869732060008301527f7469636b6574206e756d6265722e0000000000000000000000000000000000006020830152604082019050919050565b60006127d7603883613026565b91507f4669727374207072697a652070657263656e74616765206d757374206265206760008301527f726561746572207468616e207365636f6e64207072697a6500000000000000006020830152604082019050919050565b600061283d602683613026565b91507f5469636b6574206e756d626572206d757374206265206120342d64696769742060008301527f6e756d62657200000000000000000000000000000000000000000000000000006020830152604082019050919050565b60006128a3602c83613026565b91507f45616368207072697a652070657263656e74616765206d75737420626520677260008301527f6561746572207468616e203000000000000000000000000000000000000000006020830152604082019050919050565b6000612909601683613026565b91507f496e636f7272656374207469636b6574207072696365000000000000000000006000830152602082019050919050565b6000612949604083613026565b91507f43616e63656c6c6174696f6e20646561646c696e65206f6666736574206d757360008301527f74206265206c657373207468616e20746865206472617720696e74657276616c6020830152604082019050919050565b60006129af603883613026565b91507f5365636f6e64207072697a652070657263656e74616765206d7573742062652060008301527f67726561746572207468616e207468697264207072697a6500000000000000006020830152604082019050919050565b6000612a15601f83613026565b91507f53616c6573206861766520636c6f73656420666f7220746869732064726177006000830152602082019050919050565b6000612a55601c83613026565b91507f447261772063616e6e6f74206265206578656375746564207965742e000000006000830152602082019050919050565b6000612a95602783613026565b91507f446576656c6f706572206665652070657263656e74616765206d75737420626560008301527f203c3d20323025000000000000000000000000000000000000000000000000006020830152604082019050919050565b6000612afb602583613026565b91507f5072697a652070657263656e7461676573206d7573742061646420757020746f60008301527f20313030250000000000000000000000000000000000000000000000000000006020830152604082019050919050565b6000612b61604983613026565b91507f43616e63656c6c6174696f6e20646561646c696e65206f6666736574206d757360008301527f742062652067726561746572207468616e2073616c657320636c6f736520746960208301527f6d65206f666673657400000000000000000000000000000000000000000000006040830152606082019050919050565b6000612bed602b83613026565b91507f4e6f7420656e6f756768207061727469636970616e747320746f20657865637560008301527f74652074686520647261770000000000000000000000000000000000000000006020830152604082019050919050565b612c4f8161317e565b82525050565b612c66612c618261317e565b61321f565b82525050565b6000612c788288612c55565b602082019150612c888287612c55565b602082019150612c9882866124f5565b601482019150612ca88285612c55565b602082019150612cb88284612c55565b6020820191508190509695505050505050565b6000602082019050612ce060008301846124e6565b92915050565b60006020820190508181036000830152612cff8161250c565b9050919050565b60006020820190508181036000830152612d1f81612572565b9050919050565b60006020820190508181036000830152612d3f816125b2565b9050919050565b60006020820190508181036000830152612d5f81612618565b9050919050565b60006020820190508181036000830152612d7f81612658565b9050919050565b60006020820190508181036000830152612d9f816126be565b9050919050565b60006020820190508181036000830152612dbf816126fe565b9050919050565b60006020820190508181036000830152612ddf81612764565b9050919050565b60006020820190508181036000830152612dff816127ca565b9050919050565b60006020820190508181036000830152612e1f81612830565b9050919050565b60006020820190508181036000830152612e3f81612896565b9050919050565b60006020820190508181036000830152612e5f816128fc565b9050919050565b60006020820190508181036000830152612e7f8161293c565b9050919050565b60006020820190508181036000830152612e9f816129a2565b9050919050565b60006020820190508181036000830152612ebf81612a08565b9050919050565b60006020820190508181036000830152612edf81612a48565b9050919050565b60006020820190508181036000830152612eff81612a88565b9050919050565b60006020820190508181036000830152612f1f81612aee565b9050919050565b60006020820190508181036000830152612f3f81612b54565b9050919050565b60006020820190508181036000830152612f5f81612be0565b9050919050565b6000602082019050612f7b6000830184612c46565b92915050565b6000604082019050612f966000830185612c46565b612fa36020830184612c46565b9392505050565b6000606082019050612fbf6000830186612c46565b612fcc6020830185612c46565b612fd96040830184612c46565b949350505050565b6000608082019050612ff66000830187612c46565b6130036020830186612c46565b6130106040830185612c46565b61301d6060830184612c46565b95945050505050565b600082825260208201905092915050565b60006130428261317e565b915061304d8361317e565b9250827fffffffffffffffffffffffffffffffffffffffffffffffffffffffffffffffff038211156130825761308161325a565b5b828201905092915050565b60006130988261317e565b91506130a38361317e565b9250826130b3576130b2613289565b5b828204905092915050565b60006130c98261317e565b91506130d48361317e565b9250817fffffffffffffffffffffffffffffffffffffffffffffffffffffffffffffffff048311821515161561310d5761310c61325a565b5b828202905092915050565b60006131238261317e565b915061312e8361317e565b9250828210156131415761314061325a565b5b828203905092915050565b60006131578261315e565b9050919050565b600073ffffffffffffffffffffffffffffffffffffffff82169050919050565b6000819050919050565b60006131938261317e565b915060008214156131a7576131a661325a565b5b600182039050919050565b60006131bd8261317e565b91507fffffffffffffffffffffffffffffffffffffffffffffffffffffffffffffffff8214156131f0576131ef61325a565b5b600182019050919050565b60006132068261320d565b9050919050565b6000613218826132b8565b9050919050565b6000819050919050565b60006132348261317e565b915061323f8361317e565b92508261324f5761324e613289565b5b828206905092915050565b7f4e487b7100000000000000000000000000000000000000000000000000000000600052601160045260246000fd5b7f4e487b7100000000000000000000000000000000000000000000000000000000600052601260045260246000fd5b60008160601b9050919050565b6132ce8161314c565b81146132d957600080fd5b50565b6132e58161317e565b81146132f057600080fd5b5056fea2646970667358221220435189f6fc7188b5ec191045c848bbc81a0a5083aab9ea954ae0cffbb639934364736f6c63430008000033",
  "immutableReferences": {
    "28": [
      {
        "length": 32,
        "start": 1671
      },
      {
        "length": 32,
        "start": 2113
      },
      {
        "length": 32,
        "start": 2333
      },
      {
        "length": 32,
        "start": 3866
      },
      {
        "length": 32,
        "start": 4451
      },
      {
        "length": 32,
        "start": 4920
      },
      {
        "length": 32,
        "start": 6322
      },
      {
        "length": 32,
        "start": 6729
      }
    ]
  },
  "source": "// SPDX-License-Identifier: MIT\r\npragma solidity ^0.8.0;\r\n\r\ncontract LotteryDApp {\r\n    // Mappings to store ticket and ownership information per drawId\r\n    mapping(uint256 => mapping(address => uint256[])) public userTickets; // Stores the list of tickets per user per drawId\r\n    mapping(uint256 => mapping(uint256 => address[])) public ticketOwners; // Stores the owners for each ticket number per drawId\r\n    mapping(uint256 => address[]) public participants; // Each drawId has its own array of participants\r\n    mapping(uint256 => mapping(address => uint256)) public participantIndex; // Tracks index of each participant per drawId\r\n\r\n    // Configuration and constants\r\n    address public immutable developer; // Developer's address, immutable\r\n    uint256 public ticketPrice = 1 ether; // Price per ticket\r\n    uint256 public drawInterval = 10 minutes; // Interval between draws, default is 10 minutes, admin can change\r\n    uint256 public cancellationDeadlineOffset = 2 minutes; // Time before the draw when cancellations are allowed\r\n    uint256 public salesCloseTimeOffset = 1 minutes; // Time before the draw when ticket sales close\r\n\r\n    // Prize distribution percentages\r\n    uint256 public developerFeePercentage = 5; // Developer receives 5% of the total prize pool\r\n    uint256 public firstPrizePercentage = 50; // First prize gets 50% of the prize pool\r\n    uint256 public secondPrizePercentage = 30; // Second prize gets 30%\r\n    uint256 public thirdPrizePercentage = 20; // Third prize gets 20%\r\n\r\n    // Winning ticket numbers for the current draw\r\n    uint256 public firstPrizeNumber;\r\n    uint256 public secondPrizeNumber;\r\n    uint256 public thirdPrizeNumber;\r\n\r\n    // Draw tracking and management\r\n    uint256 public drawId; // Track the current draw ID\r\n    uint256 public uniqueParticipantsCount; // Tracks the number of unique participants in a draw\r\n    uint256 public lastDrawTime; // The time of the last draw (or cancellation time)\r\n    uint256 public cancellationDeadline; // Actual cancellation deadline for the current draw\r\n    uint256 public salesCloseTime; // Actual sales close time for the current draw\r\n\r\n    // Events\r\n    event TicketPurchased(address indexed buyer, uint256 ticketNumber, uint256 drawId);\r\n    event TicketCancelled(address indexed user, uint256 ticketNumber, uint256 refundAmount, uint256 drawId);\r\n    event DrawExecuted(uint256 firstPrizeNumber, uint256 secondPrizeNumber, uint256 thirdPrizeNumber, uint256 drawId);\r\n    event PrizeTierDistributed(uint256 indexed drawId, uint256 prizeTier, uint256 totalPrizeAmount, uint256 winnerCount);\r\n\r\n    constructor(uint256 _firstDrawTime) {\r\n        require(_firstDrawTime >= block.timestamp + drawInterval, \"First draw time must be in the future and greater than or equal to the draw interval\");\r\n        developer = msg.sender;\r\n        lastDrawTime = _firstDrawTime - drawInterval; // Set the last draw time to one interval before the first draw\r\n        _resetForNextDraw();\r\n    }\r\n\r\n    modifier onlyAdmin() {\r\n        require(msg.sender == developer, \"Only the admin can call this function\");\r\n        _;\r\n    }\r\n\r\n    modifier canExecuteDraw() {\r\n        require(block.timestamp >= lastDrawTime + drawInterval, \"Draw cannot be executed yet.\");\r\n        require(uniqueParticipantsCount >= 3, \"Not enough participants to execute the draw\");\r\n        _;\r\n    }\r\n\r\n    // Admin can set draw interval, cancellation deadline offset, and sales close time offset together\r\n    function setDrawAndOffsets(uint256 newDrawInterval, uint256 newCancellationOffset, uint256 newSalesCloseOffset) external onlyAdmin {\r\n        require(newCancellationOffset < newDrawInterval, \"Cancellation deadline offset must be less than the draw interval\");\r\n        require(newSalesCloseOffset < newDrawInterval, \"Sales close time offset must be less than the draw interval\");\r\n        require(newCancellationOffset > newSalesCloseOffset, \"Cancellation deadline offset must be greater than sales close time offset\");\r\n\r\n        drawInterval = newDrawInterval;\r\n        cancellationDeadlineOffset = newCancellationOffset;\r\n        salesCloseTimeOffset = newSalesCloseOffset;\r\n    }\r\n\r\n    // Admin function to adjust developer fee percentage\r\n    function setDeveloperFeePercentage(uint256 newDeveloperFeePercentage) external onlyAdmin {\r\n        require(newDeveloperFeePercentage <= 20, \"Developer fee percentage must be <= 20%\");\r\n        developerFeePercentage = newDeveloperFeePercentage;\r\n    }\r\n\r\n    // Admin function to adjust prize percentages for 1st, 2nd, and 3rd prizes\r\n    function setPrizePercentages(uint256 newFirstPrizePercentage, uint256 newSecondPrizePercentage, uint256 newThirdPrizePercentage) external onlyAdmin {\r\n        require(newFirstPrizePercentage > 0 && newSecondPrizePercentage > 0 && newThirdPrizePercentage > 0, \"Each prize percentage must be greater than 0\");\r\n        require(newFirstPrizePercentage > newSecondPrizePercentage, \"First prize percentage must be greater than second prize\");\r\n        require(newSecondPrizePercentage > newThirdPrizePercentage, \"Second prize percentage must be greater than third prize\");\r\n        require(newFirstPrizePercentage + newSecondPrizePercentage + newThirdPrizePercentage == 100, \"Prize percentages must add up to 100%\");\r\n\r\n        firstPrizePercentage = newFirstPrizePercentage;\r\n        secondPrizePercentage = newSecondPrizePercentage;\r\n        thirdPrizePercentage = newThirdPrizePercentage;\r\n    }\r\n\r\n    // Function to buy a ticket\r\n    function buyTicket(uint256 ticketNumber) external payable {\r\n        require(block.timestamp < salesCloseTime, \"Sales have closed for this draw\");\r\n        require(msg.value == ticketPrice, \"Incorrect ticket price\");\r\n        require(userTickets[drawId][msg.sender].length < 5, \"Ticket purchase limit reached\");\r\n        require(ticketNumber >= 0 && ticketNumber <= 9999, \"Ticket number must be a 4-digit number\");\r\n        require(!_hasUserPurchasedTicket(msg.sender, ticketNumber), \"You have already purchased this ticket number.\");\r\n\r\n        // Add the ticket to the user's tickets and ticketOwners\r\n        userTickets[drawId][msg.sender].push(ticketNumber);\r\n        ticketOwners[drawId][ticketNumber].push(msg.sender);\r\n\r\n        // If this is the user's first ticket, increase the unique participant count\r\n        if (userTickets[drawId][msg.sender].length == 1) {\r\n            participants[drawId].push(msg.sender);\r\n            participantIndex[drawId][msg.sender] = uniqueParticipantsCount;\r\n            uniqueParticipantsCount++;\r\n        }\r\n\r\n        emit TicketPurchased(msg.sender, ticketNumber, drawId);\r\n    }\r\n\r\n    // Function to cancel a purchased ticket\r\n    function cancelTicket(uint256 ticketNumber) external {\r\n        require(block.timestamp <= cancellationDeadline, \"Cancellation period is over\");\r\n        require(_hasUserPurchasedTicket(msg.sender, ticketNumber), \"You don't own this ticket\");\r\n\r\n        _removeUserTicket(msg.sender, ticketNumber);\r\n        _removeTicketOwner(ticketNumber, msg.sender);\r\n\r\n        // Remove the participant and adjust the unique participant count if the user has no more tickets\r\n        if (userTickets[drawId][msg.sender].length == 0) {\r\n            uint256 index = participantIndex[drawId][msg.sender]; // Get the participant's index\r\n            if (uniqueParticipantsCount == 1) {\r\n                // If there's only one participant, simply pop the array\r\n                participants[drawId].pop(); // Remove the only participant\r\n            } else {\r\n                participants[drawId][index] = participants[drawId][uniqueParticipantsCount - 1]; // Replace with last element\r\n                participantIndex[drawId][participants[drawId][index]] = index; // Update the index of the swapped participant\r\n                participants[drawId].pop(); // Remove the last element\r\n            }\r\n            delete participantIndex[drawId][msg.sender]; // Remove from mapping\r\n            uniqueParticipantsCount--;\r\n        }\r\n\r\n        // Calculate the refund (90% refund, 10% to the developer)\r\n        uint256 refundAmount = (ticketPrice * 90) / 100;\r\n        uint256 developerFee = ticketPrice - refundAmount;\r\n\r\n        // Transfer the refund to the user\r\n        payable(msg.sender).transfer(refundAmount);\r\n\r\n        // Send the 10% penalty to the developer\r\n        payable(developer).transfer(developerFee);\r\n\r\n        emit TicketCancelled(msg.sender, ticketNumber, refundAmount, drawId);\r\n    }\r\n\r\n    // Function to execute the lottery draw\r\n    function executeDraw() external onlyAdmin canExecuteDraw {\r\n        // Generate the winning numbers using block properties\r\n        firstPrizeNumber = _generateRandomNumber(1);\r\n        secondPrizeNumber = _generateRandomNumber(2);\r\n        thirdPrizeNumber = _generateRandomNumber(3);\r\n\r\n        // Emit event to record the draw results\r\n        emit DrawExecuted(firstPrizeNumber, secondPrizeNumber, thirdPrizeNumber, drawId);\r\n\r\n        // Distribute prizes immediately after draw\r\n        _distributePrizes();\r\n\r\n        // Update the draw time for the next draw\r\n        lastDrawTime = block.timestamp;\r\n        _resetForNextDraw(); // Reset and schedule for next draw\r\n    }\r\n\r\n    // Function to cancel the draw if fewer than 3 participants\r\n    function cancelDraw() external onlyAdmin {\r\n        require(block.timestamp >= salesCloseTime, \"Draw can only be cancelled after sales close.\");\r\n        require(uniqueParticipantsCount < 3, \"Cannot cancel draw: 3 or more participants\");\r\n\r\n        if (uniqueParticipantsCount > 0) {\r\n            // Refund all participants and cancel the draw\r\n            _refundAllParticipants();\r\n        }\r\n\r\n        lastDrawTime = block.timestamp; // Set lastDrawTime to cancellation time\r\n        _resetForNextDraw(); // Reset and schedule for next draw\r\n    }\r\n\r\n    // Helper function to update times for the next draw\r\n    function _resetForNextDraw() private {\r\n        cancellationDeadline = lastDrawTime + drawInterval - cancellationDeadlineOffset;\r\n        salesCloseTime = lastDrawTime + drawInterval - salesCloseTimeOffset;\r\n        uniqueParticipantsCount = 0;\r\n        drawId++;\r\n    }\r\n\r\n    // Function to generate a random 4-digit number using block properties\r\n    function _generateRandomNumber(uint256 seed) private view returns (uint256) {\r\n        return uint256(keccak256(abi.encodePacked(block.timestamp, block.difficulty, msg.sender, uniqueParticipantsCount, seed))) % 10000;\r\n    }\r\n\r\n    // Function to refund all participants if the draw is cancelled\r\n    function _refundAllParticipants() private {\r\n        // Loop through all participants and refund them\r\n        for (uint256 i = 0; i < uniqueParticipantsCount; i++) {\r\n            address participant = participants[drawId][i];\r\n            uint256 refundAmount = ticketPrice * userTickets[drawId][participant].length;\r\n            payable(participant).transfer(refundAmount); // Refund the user\r\n        }\r\n    }\r\n\r\n    // Helper function to distribute prizes\r\n    function _distributePrizes() private {\r\n        // Calculate the amounts for each prize tier after developer fee\r\n        uint256 contractBalance = address(this).balance;\r\n\r\n        uint256 developerFee = (contractBalance * developerFeePercentage) / 100;\r\n        uint256 prizePoolAfterFee = contractBalance - developerFee;\r\n\r\n        uint256 firstPrizeAmount = (prizePoolAfterFee * firstPrizePercentage) / 100;\r\n        uint256 secondPrizeAmount = (prizePoolAfterFee * secondPrizePercentage) / 100;\r\n        uint256 thirdPrizeAmount = (prizePoolAfterFee * thirdPrizePercentage) / 100;\r\n\r\n        // Transfer developer fee\r\n        payable(developer).transfer(developerFee);\r\n\r\n        // Distribute prizes\r\n        _distributePrizeTier(firstPrizeNumber, firstPrizeAmount, 1);\r\n        _distributePrizeTier(secondPrizeNumber, secondPrizeAmount, 2);\r\n        _distributePrizeTier(thirdPrizeNumber, thirdPrizeAmount, 3);\r\n    }\r\n\r\n    // Helper function to check if there are winners for any of the three prize numbers\r\n    function _hasWinners(uint256 prizeNumber1, uint256 prizeNumber2, uint256 prizeNumber3) private view returns (bool) {\r\n        return (\r\n            ticketOwners[drawId][prizeNumber1].length > 0 || \r\n            ticketOwners[drawId][prizeNumber2].length > 0 || \r\n            ticketOwners[drawId][prizeNumber3].length > 0\r\n        );\r\n    }\r\n\r\n    // Helper function to distribute prizes to a prize tier\r\n    function _distributePrizeTier(uint256 prizeNumber, uint256 prizeAmount, uint256 prizeTier) private {\r\n        address[] memory winners = ticketOwners[drawId][prizeNumber];\r\n        uint256 winnerCount = winners.length;\r\n\r\n        if (winnerCount > 0) {\r\n            uint256 prizePerWinner = prizeAmount / winnerCount;\r\n\r\n            for (uint256 i = 0; i < winnerCount; i++) {\r\n                payable(winners[i]).transfer(prizePerWinner);\r\n            }\r\n        }\r\n\r\n        emit PrizeTierDistributed(drawId, prizeTier, prizeAmount, winnerCount);\r\n    }\r\n\r\n    // Helper function to check if a user has purchased a specific ticket number\r\n    function _hasUserPurchasedTicket(address user, uint256 ticketNumber) private view returns (bool) {\r\n        uint256[] memory tickets = userTickets[drawId][user];\r\n\r\n        for (uint256 i = 0; i < tickets.length; i++) {\r\n            if (tickets[i] == ticketNumber) {\r\n                return true;\r\n            }\r\n        }\r\n        return false;\r\n    }\r\n\r\n    // Helper function to remove a ticket from the user's ticket array\r\n    function _removeUserTicket(address user, uint256 ticketNumber) private {\r\n        uint256[] storage tickets = userTickets[drawId][user];\r\n        uint256 length = tickets.length;\r\n\r\n        for (uint256 i = 0; i < length; i++) {\r\n            if (tickets[i] == ticketNumber) {\r\n                tickets[i] = tickets[length - 1]; // Replace with last element\r\n                tickets.pop(); // Remove the last element\r\n                break;\r\n            }\r\n        }\r\n    }\r\n\r\n    // Helper function to remove a user from the ticketOwners mapping for a specific ticket number\r\n    function _removeTicketOwner(uint256 ticketNumber, address user) private {\r\n        address[] storage owners = ticketOwners[drawId][ticketNumber];\r\n        uint256 length = owners.length;\r\n\r\n        for (uint256 i = 0; i < length; i++) {\r\n            if (owners[i] == user) {\r\n                owners[i] = owners[length - 1]; // Replace with last element\r\n                owners.pop(); // Remove the last element\r\n                break;\r\n            }\r\n        }\r\n    }\r\n}\r\n",
  "sourcePath": "C:\\Users\\Yap Zi Yan\\Documents\\GitHub\\LotteryTimeLockDApp\\contracts\\LotteryDApp.sol",
  "compiler": {
    "name": "solc",
    "version": "0.8.0+commit.c7dfd78e.Emscripten.clang"
  },
  "schemaVersion": "3.4.16",
  "updatedAt": "2024-09-16T14:35:46.547Z",
  "devdoc": {
    "kind": "dev",
    "methods": {},
    "version": 1
  },
  "userdoc": {
    "kind": "user",
    "methods": {},
    "version": 1
  }
}