{
  "contractName": "LotteryDApp",
  "abi": [
    {
      "inputs": [
        {
          "internalType": "uint256",
          "name": "_firstDrawTime",
          "type": "uint256"
        }
      ],
      "stateMutability": "nonpayable",
      "type": "constructor"
    },
    {
      "anonymous": false,
      "inputs": [
        {
          "indexed": false,
          "internalType": "uint256",
          "name": "firstPrizeNumber",
          "type": "uint256"
        },
        {
          "indexed": false,
          "internalType": "uint256",
          "name": "secondPrizeNumber",
          "type": "uint256"
        },
        {
          "indexed": false,
          "internalType": "uint256",
          "name": "thirdPrizeNumber",
          "type": "uint256"
        },
        {
          "indexed": false,
          "internalType": "uint256",
          "name": "drawId",
          "type": "uint256"
        }
      ],
      "name": "DrawExecuted",
      "type": "event"
    },
    {
      "anonymous": false,
      "inputs": [
        {
          "indexed": true,
          "internalType": "uint256",
          "name": "drawId",
          "type": "uint256"
        },
        {
          "indexed": false,
          "internalType": "uint256",
          "name": "prizeTier",
          "type": "uint256"
        },
        {
          "indexed": false,
          "internalType": "uint256",
          "name": "totalPrizeAmount",
          "type": "uint256"
        },
        {
          "indexed": false,
          "internalType": "uint256",
          "name": "winnerCount",
          "type": "uint256"
        }
      ],
      "name": "PrizeTierDistributed",
      "type": "event"
    },
    {
      "anonymous": false,
      "inputs": [
        {
          "indexed": true,
          "internalType": "address",
          "name": "user",
          "type": "address"
        },
        {
          "indexed": false,
          "internalType": "uint256",
          "name": "ticketNumber",
          "type": "uint256"
        },
        {
          "indexed": false,
          "internalType": "uint256",
          "name": "refundAmount",
          "type": "uint256"
        },
        {
          "indexed": false,
          "internalType": "uint256",
          "name": "drawId",
          "type": "uint256"
        }
      ],
      "name": "TicketCancelled",
      "type": "event"
    },
    {
      "anonymous": false,
      "inputs": [
        {
          "indexed": true,
          "internalType": "address",
          "name": "buyer",
          "type": "address"
        },
        {
          "indexed": false,
          "internalType": "uint256",
          "name": "ticketNumber",
          "type": "uint256"
        },
        {
          "indexed": false,
          "internalType": "uint256",
          "name": "drawId",
          "type": "uint256"
        }
      ],
      "name": "TicketPurchased",
      "type": "event"
    },
    {
      "inputs": [],
      "name": "cancellationDeadline",
      "outputs": [
        {
          "internalType": "uint256",
          "name": "",
          "type": "uint256"
        }
      ],
      "stateMutability": "view",
      "type": "function",
      "constant": true
    },
    {
      "inputs": [],
      "name": "cancellationDeadlineOffset",
      "outputs": [
        {
          "internalType": "uint256",
          "name": "",
          "type": "uint256"
        }
      ],
      "stateMutability": "view",
      "type": "function",
      "constant": true
    },
    {
      "inputs": [],
      "name": "developer",
      "outputs": [
        {
          "internalType": "address",
          "name": "",
          "type": "address"
        }
      ],
      "stateMutability": "view",
      "type": "function",
      "constant": true
    },
    {
      "inputs": [],
      "name": "developerFeePercentage",
      "outputs": [
        {
          "internalType": "uint256",
          "name": "",
          "type": "uint256"
        }
      ],
      "stateMutability": "view",
      "type": "function",
      "constant": true
    },
    {
      "inputs": [],
      "name": "drawId",
      "outputs": [
        {
          "internalType": "uint256",
          "name": "",
          "type": "uint256"
        }
      ],
      "stateMutability": "view",
      "type": "function",
      "constant": true
    },
    {
      "inputs": [],
      "name": "drawInterval",
      "outputs": [
        {
          "internalType": "uint256",
          "name": "",
          "type": "uint256"
        }
      ],
      "stateMutability": "view",
      "type": "function",
      "constant": true
    },
    {
      "inputs": [],
      "name": "firstPrizeNumber",
      "outputs": [
        {
          "internalType": "uint256",
          "name": "",
          "type": "uint256"
        }
      ],
      "stateMutability": "view",
      "type": "function",
      "constant": true
    },
    {
      "inputs": [],
      "name": "firstPrizePercentage",
      "outputs": [
        {
          "internalType": "uint256",
          "name": "",
          "type": "uint256"
        }
      ],
      "stateMutability": "view",
      "type": "function",
      "constant": true
    },
    {
      "inputs": [],
      "name": "lastDrawTime",
      "outputs": [
        {
          "internalType": "uint256",
          "name": "",
          "type": "uint256"
        }
      ],
      "stateMutability": "view",
      "type": "function",
      "constant": true
    },
    {
      "inputs": [
        {
          "internalType": "uint256",
          "name": "",
          "type": "uint256"
        },
        {
          "internalType": "address",
          "name": "",
          "type": "address"
        }
      ],
      "name": "participantIndex",
      "outputs": [
        {
          "internalType": "uint256",
          "name": "",
          "type": "uint256"
        }
      ],
      "stateMutability": "view",
      "type": "function",
      "constant": true
    },
    {
      "inputs": [
        {
          "internalType": "uint256",
          "name": "",
          "type": "uint256"
        },
        {
          "internalType": "uint256",
          "name": "",
          "type": "uint256"
        }
      ],
      "name": "participants",
      "outputs": [
        {
          "internalType": "address",
          "name": "",
          "type": "address"
        }
      ],
      "stateMutability": "view",
      "type": "function",
      "constant": true
    },
    {
      "inputs": [],
      "name": "salesCloseTime",
      "outputs": [
        {
          "internalType": "uint256",
          "name": "",
          "type": "uint256"
        }
      ],
      "stateMutability": "view",
      "type": "function",
      "constant": true
    },
    {
      "inputs": [],
      "name": "salesCloseTimeOffset",
      "outputs": [
        {
          "internalType": "uint256",
          "name": "",
          "type": "uint256"
        }
      ],
      "stateMutability": "view",
      "type": "function",
      "constant": true
    },
    {
      "inputs": [],
      "name": "secondPrizeNumber",
      "outputs": [
        {
          "internalType": "uint256",
          "name": "",
          "type": "uint256"
        }
      ],
      "stateMutability": "view",
      "type": "function",
      "constant": true
    },
    {
      "inputs": [],
      "name": "secondPrizePercentage",
      "outputs": [
        {
          "internalType": "uint256",
          "name": "",
          "type": "uint256"
        }
      ],
      "stateMutability": "view",
      "type": "function",
      "constant": true
    },
    {
      "inputs": [],
      "name": "thirdPrizeNumber",
      "outputs": [
        {
          "internalType": "uint256",
          "name": "",
          "type": "uint256"
        }
      ],
      "stateMutability": "view",
      "type": "function",
      "constant": true
    },
    {
      "inputs": [],
      "name": "thirdPrizePercentage",
      "outputs": [
        {
          "internalType": "uint256",
          "name": "",
          "type": "uint256"
        }
      ],
      "stateMutability": "view",
      "type": "function",
      "constant": true
    },
    {
      "inputs": [
        {
          "internalType": "uint256",
          "name": "",
          "type": "uint256"
        },
        {
          "internalType": "uint256",
          "name": "",
          "type": "uint256"
        },
        {
          "internalType": "uint256",
          "name": "",
          "type": "uint256"
        }
      ],
      "name": "ticketOwners",
      "outputs": [
        {
          "internalType": "address",
          "name": "",
          "type": "address"
        }
      ],
      "stateMutability": "view",
      "type": "function",
      "constant": true
    },
    {
      "inputs": [],
      "name": "ticketPrice",
      "outputs": [
        {
          "internalType": "uint256",
          "name": "",
          "type": "uint256"
        }
      ],
      "stateMutability": "view",
      "type": "function",
      "constant": true
    },
    {
      "inputs": [],
      "name": "uniqueParticipantsCount",
      "outputs": [
        {
          "internalType": "uint256",
          "name": "",
          "type": "uint256"
        }
      ],
      "stateMutability": "view",
      "type": "function",
      "constant": true
    },
    {
      "inputs": [
        {
          "internalType": "uint256",
          "name": "",
          "type": "uint256"
        },
        {
          "internalType": "address",
          "name": "",
          "type": "address"
        },
        {
          "internalType": "uint256",
          "name": "",
          "type": "uint256"
        }
      ],
      "name": "userTickets",
      "outputs": [
        {
          "internalType": "uint256",
          "name": "",
          "type": "uint256"
        }
      ],
      "stateMutability": "view",
      "type": "function",
      "constant": true
    },
    {
      "inputs": [
        {
          "internalType": "uint256",
          "name": "newDrawInterval",
          "type": "uint256"
        },
        {
          "internalType": "uint256",
          "name": "newCancellationOffset",
          "type": "uint256"
        },
        {
          "internalType": "uint256",
          "name": "newSalesCloseOffset",
          "type": "uint256"
        }
      ],
      "name": "setDrawAndOffsets",
      "outputs": [],
      "stateMutability": "nonpayable",
      "type": "function"
    },
    {
      "inputs": [
        {
          "internalType": "uint256",
          "name": "newDeveloperFeePercentage",
          "type": "uint256"
        }
      ],
      "name": "setDeveloperFeePercentage",
      "outputs": [],
      "stateMutability": "nonpayable",
      "type": "function"
    },
    {
      "inputs": [
        {
          "internalType": "uint256",
          "name": "newFirstPrizePercentage",
          "type": "uint256"
        },
        {
          "internalType": "uint256",
          "name": "newSecondPrizePercentage",
          "type": "uint256"
        },
        {
          "internalType": "uint256",
          "name": "newThirdPrizePercentage",
          "type": "uint256"
        }
      ],
      "name": "setPrizePercentages",
      "outputs": [],
      "stateMutability": "nonpayable",
      "type": "function"
    },
    {
      "inputs": [
        {
          "internalType": "uint256",
          "name": "ticketNumber",
          "type": "uint256"
        }
      ],
      "name": "buyTicket",
      "outputs": [],
      "stateMutability": "payable",
      "type": "function",
      "payable": true
    },
    {
      "inputs": [
        {
          "internalType": "uint256",
          "name": "ticketNumber",
          "type": "uint256"
        }
      ],
      "name": "cancelTicket",
      "outputs": [],
      "stateMutability": "nonpayable",
      "type": "function"
    },
    {
      "inputs": [],
      "name": "executeDraw",
      "outputs": [],
      "stateMutability": "nonpayable",
      "type": "function"
    },
    {
      "inputs": [],
      "name": "cancelDraw",
      "outputs": [],
      "stateMutability": "nonpayable",
      "type": "function"
    },
    {
      "inputs": [
        {
          "internalType": "address",
          "name": "_user",
          "type": "address"
        }
      ],
      "name": "getUserTicketCount",
      "outputs": [
        {
          "internalType": "uint256",
          "name": "",
          "type": "uint256"
        }
      ],
      "stateMutability": "view",
      "type": "function",
      "constant": true
    }
  ],
  "bytecode": "0x60a0604052670de0b6b3a76400006004556102586005556078600655603c60075560056008556032600955601e600a556014600b553480156200004157600080fd5b5060405162003816380380620038168339818101604052810190620000679190620001a9565b6005544262000077919062000296565b811015620000bc576040517f08c379a0000000000000000000000000000000000000000000000000000000008152600401620000b39062000263565b60405180910390fd5b3373ffffffffffffffffffffffffffffffffffffffff1660808173ffffffffffffffffffffffffffffffffffffffff1660601b8152505060055481620001039190620002f3565b601181905550620001196200012060201b60201c565b50620003cf565b60065460055460115462000135919062000296565b620001419190620002f3565b6012819055506007546005546011546200015c919062000296565b620001689190620002f3565b6013819055506000601081905550600f60008154809291906200018b9062000338565b9190505550565b600081519050620001a381620003b5565b92915050565b600060208284031215620001bc57600080fd5b6000620001cc8482850162000192565b91505092915050565b6000620001e460548362000285565b91507f466972737420647261772074696d65206d75737420626520696e20746865206660008301527f757475726520616e642067726561746572207468616e206f7220657175616c2060208301527f746f20746865206472617720696e74657276616c0000000000000000000000006040830152606082019050919050565b600060208201905081810360008301526200027e81620001d5565b9050919050565b600082825260208201905092915050565b6000620002a3826200032e565b9150620002b0836200032e565b9250827fffffffffffffffffffffffffffffffffffffffffffffffffffffffffffffffff03821115620002e857620002e762000386565b5b828201905092915050565b600062000300826200032e565b91506200030d836200032e565b92508282101562000323576200032262000386565b5b828203905092915050565b6000819050919050565b600062000345826200032e565b91507fffffffffffffffffffffffffffffffffffffffffffffffffffffffffffffffff8214156200037b576200037a62000386565b5b600182019050919050565b7f4e487b7100000000000000000000000000000000000000000000000000000000600052601160045260246000fd5b620003c0816200032e565b8114620003cc57600080fd5b50565b60805160601c6133f76200041f600039600081816106cf015281816108890152818161096501528181610fc001528181611209015281816113de015281816119570152611aee01526133f76000f3fe6080604052600436106101c25760003560e01c8063a11dec9f116100f7578063c131688811610095578063db70051b11610064578063db70051b14610617578063e227dbe714610642578063eb0e81d41461066d578063ee355b1f14610698576101c2565b8063c13168881461056b578063ca4b208b14610596578063ce88faf8146105c1578063cea76beb146105ec576101c2565b8063b858bb65116100d1578063b858bb651461049d578063b8b723a6146104da578063bc06c4cc14610503578063bf2ee9391461052e576101c2565b8063a11dec9f1461040c578063a49b85cf14610435578063ace2589514610460576101c2565b80635cbbd6351161016457806381fb1fb41161013e57806381fb1fb41461033c578063963ef2a21461037957806397349a95146103b6578063998ec8da146103e1576101c2565b80635cbbd635146102ca57806367dd74ca146102f55780637862f04c14610311576101c2565b80633782377e116101a05780633782377e1461023457806338daefb61461025f578063412a616a1461028857806352b6ecc21461029f576101c2565b80631209b1f6146101c7578063205f6b4c146101f25780632d49a7bf1461021d575b600080fd5b3480156101d357600080fd5b506101dc6106c1565b6040516101e99190613034565b60405180910390f35b3480156101fe57600080fd5b506102076106c7565b6040516102149190613034565b60405180910390f35b34801561022957600080fd5b506102326106cd565b005b34801561024057600080fd5b50610249610881565b6040516102569190613034565b60405180910390f35b34801561026b57600080fd5b5061028660048036038101906102819190612475565b610887565b005b34801561029457600080fd5b5061029d610963565b005b3480156102ab57600080fd5b506102b4610aa0565b6040516102c19190613034565b60405180910390f35b3480156102d657600080fd5b506102df610aa6565b6040516102ec9190613034565b60405180910390f35b61030f600480360381019061030a9190612475565b610aac565b005b34801561031d57600080fd5b50610326610f00565b6040516103339190613034565b60405180910390f35b34801561034857600080fd5b50610363600480360381019061035e9190612529565b610f06565b6040516103709190612d99565b60405180910390f35b34801561038557600080fd5b506103a0600480360381019061039b919061244c565b610f54565b6040516103ad9190613034565b60405180910390f35b3480156103c257600080fd5b506103cb610fb2565b6040516103d89190613034565b60405180910390f35b3480156103ed57600080fd5b506103f6610fb8565b6040516104039190613034565b60405180910390f35b34801561041857600080fd5b50610433600480360381019061042e9190612565565b610fbe565b005b34801561044157600080fd5b5061044a61119e565b6040516104579190613034565b60405180910390f35b34801561046c57600080fd5b506104876004803603810190610482919061249e565b6111a4565b6040516104949190613034565b60405180910390f35b3480156104a957600080fd5b506104c460048036038101906104bf91906124da565b6111c9565b6040516104d19190613034565b60405180910390f35b3480156104e657600080fd5b5061050160048036038101906104fc9190612565565b611207565b005b34801561050f57600080fd5b50610518611375565b6040516105259190613034565b60405180910390f35b34801561053a57600080fd5b5061055560048036038101906105509190612565565b61137b565b6040516105629190612d99565b60405180910390f35b34801561057757600080fd5b506105806113d6565b60405161058d9190613034565b60405180910390f35b3480156105a257600080fd5b506105ab6113dc565b6040516105b89190612d99565b60405180910390f35b3480156105cd57600080fd5b506105d6611400565b6040516105e39190613034565b60405180910390f35b3480156105f857600080fd5b50610601611406565b60405161060e9190613034565b60405180910390f35b34801561062357600080fd5b5061062c61140c565b6040516106399190613034565b60405180910390f35b34801561064e57600080fd5b50610657611412565b6040516106649190613034565b60405180910390f35b34801561067957600080fd5b50610682611418565b60405161068f9190613034565b60405180910390f35b3480156106a457600080fd5b506106bf60048036038101906106ba9190612475565b61141e565b005b60045481565b60065481565b7f000000000000000000000000000000000000000000000000000000000000000073ffffffffffffffffffffffffffffffffffffffff163373ffffffffffffffffffffffffffffffffffffffff161461075b576040517f08c379a000000000000000000000000000000000000000000000000000000000815260040161075290612df4565b60405180910390fd5b60055460115461076b9190613105565b4210156107ad576040517f08c379a00000000000000000000000000000000000000000000000000000000081526004016107a490612f94565b60405180910390fd5b600360105410156107f3576040517f08c379a00000000000000000000000000000000000000000000000000000000081526004016107ea90613014565b60405180910390fd5b6107fd6001611a15565b600c8190555061080d6002611a15565b600d8190555061081d6003611a15565b600e819055507f6577c80834ca754da633233dd2a49c06143ba0e4333e8323383df0746ded4109600c54600d54600e54600f5460405161086094939291906130af565b60405180910390a1610870611a5f565b4260118190555061087f611b85565b565b60135481565b7f000000000000000000000000000000000000000000000000000000000000000073ffffffffffffffffffffffffffffffffffffffff163373ffffffffffffffffffffffffffffffffffffffff1614610915576040517f08c379a000000000000000000000000000000000000000000000000000000000815260040161090c90612df4565b60405180910390fd5b6014811115610959576040517f08c379a000000000000000000000000000000000000000000000000000000000815260040161095090612fb4565b60405180910390fd5b8060088190555050565b7f000000000000000000000000000000000000000000000000000000000000000073ffffffffffffffffffffffffffffffffffffffff163373ffffffffffffffffffffffffffffffffffffffff16146109f1576040517f08c379a00000000000000000000000000000000000000000000000000000000081526004016109e890612df4565b60405180910390fd5b601354421015610a36576040517f08c379a0000000000000000000000000000000000000000000000000000000008152600401610a2d90612e74565b60405180910390fd5b600360105410610a7b576040517f08c379a0000000000000000000000000000000000000000000000000000000008152600401610a7290612db4565b60405180910390fd5b60006010541115610a8f57610a8e611bed565b5b42601181905550610a9e611b85565b565b600d5481565b60115481565b6013544210610af0576040517f08c379a0000000000000000000000000000000000000000000000000000000008152600401610ae790612f74565b60405180910390fd5b6004543414610b34576040517f08c379a0000000000000000000000000000000000000000000000000000000008152600401610b2b90612f14565b60405180910390fd5b6005600080600f54815260200190815260200160002060003373ffffffffffffffffffffffffffffffffffffffff1673ffffffffffffffffffffffffffffffffffffffff1681526020019081526020016000208054905010610bcb576040517f08c379a0000000000000000000000000000000000000000000000000000000008152600401610bc290612e54565b60405180910390fd5b60008110158015610bde575061270f8111155b610c1d576040517f08c379a0000000000000000000000000000000000000000000000000000000008152600401610c1490612ed4565b60405180910390fd5b610c273382611d3b565b15610c67576040517f08c379a0000000000000000000000000000000000000000000000000000000008152600401610c5e90612e94565b60405180910390fd5b600080600f54815260200190815260200160002060003373ffffffffffffffffffffffffffffffffffffffff1673ffffffffffffffffffffffffffffffffffffffff16815260200190815260200160002081908060018154018082558091505060019003906000526020600020016000909190919091505560016000600f5481526020019081526020016000206000828152602001908152602001600020339080600181540180825580915050600190039060005260206000200160009091909190916101000a81548173ffffffffffffffffffffffffffffffffffffffff021916908373ffffffffffffffffffffffffffffffffffffffff1602179055506001600080600f54815260200190815260200160002060003373ffffffffffffffffffffffffffffffffffffffff1673ffffffffffffffffffffffffffffffffffffffff168152602001908152602001600020805490501415610eab5760026000600f548152602001908152602001600020339080600181540180825580915050600190039060005260206000200160009091909190916101000a81548173ffffffffffffffffffffffffffffffffffffffff021916908373ffffffffffffffffffffffffffffffffffffffff16021790555060105460036000600f54815260200190815260200160002060003373ffffffffffffffffffffffffffffffffffffffff1673ffffffffffffffffffffffffffffffffffffffff1681526020019081526020016000208190555060106000815480929190610ea590613280565b91905055505b3373ffffffffffffffffffffffffffffffffffffffff167f2a91574e12ad96234e84923e146b0946ecfb871cd8d5534dc1fdcbe87a7c01b382600f54604051610ef592919061304f565b60405180910390a250565b60085481565b60026020528160005260406000208181548110610f2257600080fd5b906000526020600020016000915091509054906101000a900473ffffffffffffffffffffffffffffffffffffffff1681565b6000806000600f54815260200190815260200160002060008373ffffffffffffffffffffffffffffffffffffffff1673ffffffffffffffffffffffffffffffffffffffff168152602001908152602001600020805490509050919050565b600a5481565b60125481565b7f000000000000000000000000000000000000000000000000000000000000000073ffffffffffffffffffffffffffffffffffffffff163373ffffffffffffffffffffffffffffffffffffffff161461104c576040517f08c379a000000000000000000000000000000000000000000000000000000000815260040161104390612df4565b60405180910390fd5b60008311801561105c5750600082115b80156110685750600081115b6110a7576040517f08c379a000000000000000000000000000000000000000000000000000000000815260040161109e90612ef4565b60405180910390fd5b8183116110e9576040517f08c379a00000000000000000000000000000000000000000000000000000000081526004016110e090612eb4565b60405180910390fd5b80821161112b576040517f08c379a000000000000000000000000000000000000000000000000000000000815260040161112290612f54565b60405180910390fd5b606481838561113a9190613105565b6111449190613105565b14611184576040517f08c379a000000000000000000000000000000000000000000000000000000000815260040161117b90612fd4565b60405180910390fd5b8260098190555081600a8190555080600b81905550505050565b60105481565b6003602052816000526040600020602052806000526040600020600091509150505481565b600060205282600052604060002060205281600052604060002081815481106111f157600080fd5b9060005260206000200160009250925050505481565b7f000000000000000000000000000000000000000000000000000000000000000073ffffffffffffffffffffffffffffffffffffffff163373ffffffffffffffffffffffffffffffffffffffff1614611295576040517f08c379a000000000000000000000000000000000000000000000000000000000815260040161128c90612df4565b60405180910390fd5b8282106112d7576040517f08c379a00000000000000000000000000000000000000000000000000000000081526004016112ce90612f34565b60405180910390fd5b828110611319576040517f08c379a000000000000000000000000000000000000000000000000000000000815260040161131090612e34565b60405180910390fd5b80821161135b576040517f08c379a000000000000000000000000000000000000000000000000000000000815260040161135290612ff4565b60405180910390fd5b826005819055508160068190555080600781905550505050565b60055481565b600160205282600052604060002060205281600052604060002081815481106113a357600080fd5b90600052602060002001600092509250509054906101000a900473ffffffffffffffffffffffffffffffffffffffff1681565b60095481565b7f000000000000000000000000000000000000000000000000000000000000000081565b600e5481565b60075481565b600c5481565b600b5481565b600f5481565b6012544210611462576040517f08c379a000000000000000000000000000000000000000000000000000000000815260040161145990612dd4565b60405180910390fd5b61146c3382611d3b565b6114ab576040517f08c379a00000000000000000000000000000000000000000000000000000000081526004016114a290612e14565b60405180910390fd5b6114b53382611e5f565b6114bf8133612016565b6000806000600f54815260200190815260200160002060003373ffffffffffffffffffffffffffffffffffffffff1673ffffffffffffffffffffffffffffffffffffffff1681526020019081526020016000208054905014156118dd57600060036000600f54815260200190815260200160002060003373ffffffffffffffffffffffffffffffffffffffff1673ffffffffffffffffffffffffffffffffffffffff168152602001908152602001600020549050600160105414156116035760026000600f5481526020019081526020016000208054806115c9577f4e487b7100000000000000000000000000000000000000000000000000000000600052603160045260246000fd5b6001900381819060005260206000200160006101000a81549073ffffffffffffffffffffffffffffffffffffffff0219169055905561186d565b60026000600f548152602001908152602001600020600160105461162791906131e6565b8154811061165e577f4e487b7100000000000000000000000000000000000000000000000000000000600052603260045260246000fd5b9060005260206000200160009054906101000a900473ffffffffffffffffffffffffffffffffffffffff1660026000600f54815260200190815260200160002082815481106116d6577f4e487b7100000000000000000000000000000000000000000000000000000000600052603260045260246000fd5b9060005260206000200160006101000a81548173ffffffffffffffffffffffffffffffffffffffff021916908373ffffffffffffffffffffffffffffffffffffffff1602179055508060036000600f548152602001908152602001600020600060026000600f5481526020019081526020016000208481548110611783577f4e487b7100000000000000000000000000000000000000000000000000000000600052603260045260246000fd5b9060005260206000200160009054906101000a900473ffffffffffffffffffffffffffffffffffffffff1673ffffffffffffffffffffffffffffffffffffffff1673ffffffffffffffffffffffffffffffffffffffff1681526020019081526020016000208190555060026000600f548152602001908152602001600020805480611837577f4e487b7100000000000000000000000000000000000000000000000000000000600052603160045260246000fd5b6001900381819060005260206000200160006101000a81549073ffffffffffffffffffffffffffffffffffffffff021916905590555b60036000600f54815260200190815260200160002060003373ffffffffffffffffffffffffffffffffffffffff1673ffffffffffffffffffffffffffffffffffffffff16815260200190815260200160002060009055601060008154809291906118d690613256565b9190505550505b60006064605a6004546118f0919061318c565b6118fa919061315b565b905060008160045461190c91906131e6565b90503373ffffffffffffffffffffffffffffffffffffffff166108fc839081150290604051600060405180830381858888f19350505050158015611954573d6000803e3d6000fd5b507f000000000000000000000000000000000000000000000000000000000000000073ffffffffffffffffffffffffffffffffffffffff166108fc829081150290604051600060405180830381858888f193505050501580156119bb573d6000803e3d6000fd5b503373ffffffffffffffffffffffffffffffffffffffff167fb1eb34723e2b96b3a84295697955028f712f8442afabaabe7bea0d7ccee45d0b8484600f54604051611a0893929190613078565b60405180910390a2505050565b600061271042443360105486604051602001611a35959493929190612d3a565b6040516020818303038152906040528051906020012060001c611a5891906132f7565b9050919050565b60004790506000606460085483611a76919061318c565b611a80919061315b565b905060008183611a9091906131e6565b90506000606460095483611aa4919061318c565b611aae919061315b565b905060006064600a5484611ac2919061318c565b611acc919061315b565b905060006064600b5485611ae0919061318c565b611aea919061315b565b90507f000000000000000000000000000000000000000000000000000000000000000073ffffffffffffffffffffffffffffffffffffffff166108fc869081150290604051600060405180830381858888f19350505050158015611b52573d6000803e3d6000fd5b50611b61600c54846001612267565b611b6f600d54836002612267565b611b7d600e54826003612267565b505050505050565b600654600554601154611b989190613105565b611ba291906131e6565b601281905550600754600554601154611bbb9190613105565b611bc591906131e6565b6013819055506000601081905550600f6000815480929190611be690613280565b9190505550565b60005b601054811015611d3857600060026000600f5481526020019081526020016000208281548110611c49577f4e487b7100000000000000000000000000000000000000000000000000000000600052603260045260246000fd5b9060005260206000200160009054906101000a900473ffffffffffffffffffffffffffffffffffffffff1690506000806000600f54815260200190815260200160002060008373ffffffffffffffffffffffffffffffffffffffff1673ffffffffffffffffffffffffffffffffffffffff16815260200190815260200160002080549050600454611cda919061318c565b90508173ffffffffffffffffffffffffffffffffffffffff166108fc829081150290604051600060405180830381858888f19350505050158015611d22573d6000803e3d6000fd5b5050508080611d3090613280565b915050611bf0565b50565b600080600080600f54815260200190815260200160002060008573ffffffffffffffffffffffffffffffffffffffff1673ffffffffffffffffffffffffffffffffffffffff168152602001908152602001600020805480602002602001604051908101604052809291908181526020018280548015611dd957602002820191906000526020600020905b815481526020019060010190808311611dc5575b5050505050905060005b8151811015611e525783828281518110611e26577f4e487b7100000000000000000000000000000000000000000000000000000000600052603260045260246000fd5b60200260200101511415611e3f57600192505050611e59565b8080611e4a90613280565b915050611de3565b5060009150505b92915050565b6000806000600f54815260200190815260200160002060008473ffffffffffffffffffffffffffffffffffffffff1673ffffffffffffffffffffffffffffffffffffffff168152602001908152602001600020905060008180549050905060005b8181101561200f5783838281548110611f02577f4e487b7100000000000000000000000000000000000000000000000000000000600052603260045260246000fd5b90600052602060002001541415611ffc5782600183611f2191906131e6565b81548110611f58577f4e487b7100000000000000000000000000000000000000000000000000000000600052603260045260246000fd5b9060005260206000200154838281548110611f9c577f4e487b7100000000000000000000000000000000000000000000000000000000600052603260045260246000fd5b906000526020600020018190555082805480611fe1577f4e487b7100000000000000000000000000000000000000000000000000000000600052603160045260246000fd5b6001900381819060005260206000200160009055905561200f565b808061200790613280565b915050611ec0565b5050505050565b600060016000600f5481526020019081526020016000206000848152602001908152602001600020905060008180549050905060005b81811015612260578373ffffffffffffffffffffffffffffffffffffffff168382815481106120a4577f4e487b7100000000000000000000000000000000000000000000000000000000600052603260045260246000fd5b9060005260206000200160009054906101000a900473ffffffffffffffffffffffffffffffffffffffff1673ffffffffffffffffffffffffffffffffffffffff16141561224d57826001836120f991906131e6565b81548110612130577f4e487b7100000000000000000000000000000000000000000000000000000000600052603260045260246000fd5b9060005260206000200160009054906101000a900473ffffffffffffffffffffffffffffffffffffffff16838281548110612194577f4e487b7100000000000000000000000000000000000000000000000000000000600052603260045260246000fd5b9060005260206000200160006101000a81548173ffffffffffffffffffffffffffffffffffffffff021916908373ffffffffffffffffffffffffffffffffffffffff16021790555082805480612213577f4e487b7100000000000000000000000000000000000000000000000000000000600052603160045260246000fd5b6001900381819060005260206000200160006101000a81549073ffffffffffffffffffffffffffffffffffffffff02191690559055612260565b808061225890613280565b91505061204c565b5050505050565b600060016000600f548152602001908152602001600020600085815260200190815260200160002080548060200260200160405190810160405280929190818152602001828054801561230f57602002820191906000526020600020905b8160009054906101000a900473ffffffffffffffffffffffffffffffffffffffff1673ffffffffffffffffffffffffffffffffffffffff16815260200190600101908083116122c5575b5050505050905060008151905060008111156123dd5760008185612333919061315b565b905060005b828110156123da57838181518110612379577f4e487b7100000000000000000000000000000000000000000000000000000000600052603260045260246000fd5b602002602001015173ffffffffffffffffffffffffffffffffffffffff166108fc839081150290604051600060405180830381858888f193505050501580156123c6573d6000803e3d6000fd5b5080806123d290613280565b915050612338565b50505b600f547f32e99a4c236813e094ebc544b9935f02035ce44769ed07b51dc5036d00842be984868460405161241393929190613078565b60405180910390a25050505050565b60008135905061243181613393565b92915050565b600081359050612446816133aa565b92915050565b60006020828403121561245e57600080fd5b600061246c84828501612422565b91505092915050565b60006020828403121561248757600080fd5b600061249584828501612437565b91505092915050565b600080604083850312156124b157600080fd5b60006124bf85828601612437565b92505060206124d085828601612422565b9150509250929050565b6000806000606084860312156124ef57600080fd5b60006124fd86828701612437565b935050602061250e86828701612422565b925050604061251f86828701612437565b9150509250925092565b6000806040838503121561253c57600080fd5b600061254a85828601612437565b925050602061255b85828601612437565b9150509250929050565b60008060006060848603121561257a57600080fd5b600061258886828701612437565b935050602061259986828701612437565b92505060406125aa86828701612437565b9150509250925092565b6125bd8161321a565b82525050565b6125d46125cf8261321a565b6132c9565b82525050565b60006125e7602a836130f4565b91507f43616e6e6f742063616e63656c20647261773a2033206f72206d6f726520706160008301527f727469636970616e7473000000000000000000000000000000000000000000006020830152604082019050919050565b600061264d601b836130f4565b91507f43616e63656c6c6174696f6e20706572696f64206973206f76657200000000006000830152602082019050919050565b600061268d6025836130f4565b91507f4f6e6c79207468652061646d696e2063616e2063616c6c20746869732066756e60008301527f6374696f6e0000000000000000000000000000000000000000000000000000006020830152604082019050919050565b60006126f36019836130f4565b91507f596f7520646f6e2774206f776e2074686973207469636b6574000000000000006000830152602082019050919050565b6000612733603b836130f4565b91507f53616c657320636c6f73652074696d65206f6666736574206d7573742062652060008301527f6c657373207468616e20746865206472617720696e74657276616c00000000006020830152604082019050919050565b6000612799601d836130f4565b91507f5469636b6574207075726368617365206c696d697420726561636865640000006000830152602082019050919050565b60006127d9602d836130f4565b91507f447261772063616e206f6e6c792062652063616e63656c6c656420616674657260008301527f2073616c657320636c6f73652e000000000000000000000000000000000000006020830152604082019050919050565b600061283f602e836130f4565b91507f596f75206861766520616c72656164792070757263686173656420746869732060008301527f7469636b6574206e756d6265722e0000000000000000000000000000000000006020830152604082019050919050565b60006128a56038836130f4565b91507f4669727374207072697a652070657263656e74616765206d757374206265206760008301527f726561746572207468616e207365636f6e64207072697a6500000000000000006020830152604082019050919050565b600061290b6026836130f4565b91507f5469636b6574206e756d626572206d757374206265206120342d64696769742060008301527f6e756d62657200000000000000000000000000000000000000000000000000006020830152604082019050919050565b6000612971602c836130f4565b91507f45616368207072697a652070657263656e74616765206d75737420626520677260008301527f6561746572207468616e203000000000000000000000000000000000000000006020830152604082019050919050565b60006129d76016836130f4565b91507f496e636f7272656374207469636b6574207072696365000000000000000000006000830152602082019050919050565b6000612a176040836130f4565b91507f43616e63656c6c6174696f6e20646561646c696e65206f6666736574206d757360008301527f74206265206c657373207468616e20746865206472617720696e74657276616c6020830152604082019050919050565b6000612a7d6038836130f4565b91507f5365636f6e64207072697a652070657263656e74616765206d7573742062652060008301527f67726561746572207468616e207468697264207072697a6500000000000000006020830152604082019050919050565b6000612ae3601f836130f4565b91507f53616c6573206861766520636c6f73656420666f7220746869732064726177006000830152602082019050919050565b6000612b23601c836130f4565b91507f447261772063616e6e6f74206265206578656375746564207965742e000000006000830152602082019050919050565b6000612b636027836130f4565b91507f446576656c6f706572206665652070657263656e74616765206d75737420626560008301527f203c3d20323025000000000000000000000000000000000000000000000000006020830152604082019050919050565b6000612bc96025836130f4565b91507f5072697a652070657263656e7461676573206d7573742061646420757020746f60008301527f20313030250000000000000000000000000000000000000000000000000000006020830152604082019050919050565b6000612c2f6049836130f4565b91507f43616e63656c6c6174696f6e20646561646c696e65206f6666736574206d757360008301527f742062652067726561746572207468616e2073616c657320636c6f736520746960208301527f6d65206f666673657400000000000000000000000000000000000000000000006040830152606082019050919050565b6000612cbb602b836130f4565b91507f4e6f7420656e6f756768207061727469636970616e747320746f20657865637560008301527f74652074686520647261770000000000000000000000000000000000000000006020830152604082019050919050565b612d1d8161324c565b82525050565b612d34612d2f8261324c565b6132ed565b82525050565b6000612d468288612d23565b602082019150612d568287612d23565b602082019150612d6682866125c3565b601482019150612d768285612d23565b602082019150612d868284612d23565b6020820191508190509695505050505050565b6000602082019050612dae60008301846125b4565b92915050565b60006020820190508181036000830152612dcd816125da565b9050919050565b60006020820190508181036000830152612ded81612640565b9050919050565b60006020820190508181036000830152612e0d81612680565b9050919050565b60006020820190508181036000830152612e2d816126e6565b9050919050565b60006020820190508181036000830152612e4d81612726565b9050919050565b60006020820190508181036000830152612e6d8161278c565b9050919050565b60006020820190508181036000830152612e8d816127cc565b9050919050565b60006020820190508181036000830152612ead81612832565b9050919050565b60006020820190508181036000830152612ecd81612898565b9050919050565b60006020820190508181036000830152612eed816128fe565b9050919050565b60006020820190508181036000830152612f0d81612964565b9050919050565b60006020820190508181036000830152612f2d816129ca565b9050919050565b60006020820190508181036000830152612f4d81612a0a565b9050919050565b60006020820190508181036000830152612f6d81612a70565b9050919050565b60006020820190508181036000830152612f8d81612ad6565b9050919050565b60006020820190508181036000830152612fad81612b16565b9050919050565b60006020820190508181036000830152612fcd81612b56565b9050919050565b60006020820190508181036000830152612fed81612bbc565b9050919050565b6000602082019050818103600083015261300d81612c22565b9050919050565b6000602082019050818103600083015261302d81612cae565b9050919050565b60006020820190506130496000830184612d14565b92915050565b60006040820190506130646000830185612d14565b6130716020830184612d14565b9392505050565b600060608201905061308d6000830186612d14565b61309a6020830185612d14565b6130a76040830184612d14565b949350505050565b60006080820190506130c46000830187612d14565b6130d16020830186612d14565b6130de6040830185612d14565b6130eb6060830184612d14565b95945050505050565b600082825260208201905092915050565b60006131108261324c565b915061311b8361324c565b9250827fffffffffffffffffffffffffffffffffffffffffffffffffffffffffffffffff038211156131505761314f613328565b5b828201905092915050565b60006131668261324c565b91506131718361324c565b92508261318157613180613357565b5b828204905092915050565b60006131978261324c565b91506131a28361324c565b9250817fffffffffffffffffffffffffffffffffffffffffffffffffffffffffffffffff04831182151516156131db576131da613328565b5b828202905092915050565b60006131f18261324c565b91506131fc8361324c565b92508282101561320f5761320e613328565b5b828203905092915050565b60006132258261322c565b9050919050565b600073ffffffffffffffffffffffffffffffffffffffff82169050919050565b6000819050919050565b60006132618261324c565b9150600082141561327557613274613328565b5b600182039050919050565b600061328b8261324c565b91507fffffffffffffffffffffffffffffffffffffffffffffffffffffffffffffffff8214156132be576132bd613328565b5b600182019050919050565b60006132d4826132db565b9050919050565b60006132e682613386565b9050919050565b6000819050919050565b60006133028261324c565b915061330d8361324c565b92508261331d5761331c613357565b5b828206905092915050565b7f4e487b7100000000000000000000000000000000000000000000000000000000600052601160045260246000fd5b7f4e487b7100000000000000000000000000000000000000000000000000000000600052601260045260246000fd5b60008160601b9050919050565b61339c8161321a565b81146133a757600080fd5b50565b6133b38161324c565b81146133be57600080fd5b5056fea26469706673582212209eb376671b5b830d3125d96f4ab6064aa4588e7bbbc2ea2c05dca05bc994aa4664736f6c63430008000033",
  "immutableReferences": {
    "28": [
      {
        "length": 32,
        "start": 1743
      },
      {
        "length": 32,
        "start": 2185
      },
      {
        "length": 32,
        "start": 2405
      },
      {
        "length": 32,
        "start": 4032
      },
      {
        "length": 32,
        "start": 4617
      },
      {
        "length": 32,
        "start": 5086
      },
      {
        "length": 32,
        "start": 6487
      },
      {
        "length": 32,
        "start": 6894
      }
    ]
  },
  "source": "// SPDX-License-Identifier: MIT\r\npragma solidity ^0.8.0;\r\n\r\ncontract LotteryDApp {\r\n    // Mappings to store ticket and ownership information per drawId\r\n    mapping(uint256 => mapping(address => uint256[])) public userTickets; // Stores the list of tickets per user per drawId\r\n    mapping(uint256 => mapping(uint256 => address[])) public ticketOwners; // Stores the owners for each ticket number per drawId\r\n    mapping(uint256 => address[]) public participants; // Each drawId has its own array of participants\r\n    mapping(uint256 => mapping(address => uint256)) public participantIndex; // Tracks index of each participant per drawId\r\n\r\n    // Configuration and constants\r\n    address public immutable developer; // Developer's address, immutable\r\n    uint256 public ticketPrice = 1 ether; // Price per ticket\r\n    uint256 public drawInterval = 10 minutes; // Interval between draws, default is 10 minutes, admin can change\r\n    uint256 public cancellationDeadlineOffset = 2 minutes; // Time before the draw when cancellations are allowed\r\n    uint256 public salesCloseTimeOffset = 1 minutes; // Time before the draw when ticket sales close\r\n\r\n    // Prize distribution percentages\r\n    uint256 public developerFeePercentage = 5; // Developer receives 5% of the total prize pool\r\n    uint256 public firstPrizePercentage = 50; // First prize gets 50% of the prize pool\r\n    uint256 public secondPrizePercentage = 30; // Second prize gets 30%\r\n    uint256 public thirdPrizePercentage = 20; // Third prize gets 20%\r\n\r\n    // Winning ticket numbers for the current draw\r\n    uint256 public firstPrizeNumber;\r\n    uint256 public secondPrizeNumber;\r\n    uint256 public thirdPrizeNumber;\r\n\r\n    // Draw tracking and management\r\n    uint256 public drawId; // Track the current draw ID\r\n    uint256 public uniqueParticipantsCount; // Tracks the number of unique participants in a draw\r\n    uint256 public lastDrawTime; // The time of the last draw (or cancellation time)\r\n    uint256 public cancellationDeadline; // Actual cancellation deadline for the current draw\r\n    uint256 public salesCloseTime; // Actual sales close time for the current draw\r\n\r\n    // Events\r\n    event TicketPurchased(address indexed buyer, uint256 ticketNumber, uint256 drawId);\r\n    event TicketCancelled(address indexed user, uint256 ticketNumber, uint256 refundAmount, uint256 drawId);\r\n    event DrawExecuted(uint256 firstPrizeNumber, uint256 secondPrizeNumber, uint256 thirdPrizeNumber, uint256 drawId);\r\n    event PrizeTierDistributed(uint256 indexed drawId, uint256 prizeTier, uint256 totalPrizeAmount, uint256 winnerCount);\r\n\r\n    constructor(uint256 _firstDrawTime) {\r\n        require(_firstDrawTime >= block.timestamp + drawInterval, \"First draw time must be in the future and greater than or equal to the draw interval\");\r\n        developer = msg.sender;\r\n        lastDrawTime = _firstDrawTime - drawInterval; // Set the last draw time to one interval before the first draw\r\n        _resetForNextDraw();\r\n    }\r\n\r\n    modifier onlyAdmin() {\r\n        require(msg.sender == developer, \"Only the admin can call this function\");\r\n        _;\r\n    }\r\n\r\n    modifier canExecuteDraw() {\r\n        require(block.timestamp >= lastDrawTime + drawInterval, \"Draw cannot be executed yet.\");\r\n        require(uniqueParticipantsCount >= 3, \"Not enough participants to execute the draw\");\r\n        _;\r\n    }\r\n\r\n    // Admin can set draw interval, cancellation deadline offset, and sales close time offset together\r\n    function setDrawAndOffsets(uint256 newDrawInterval, uint256 newCancellationOffset, uint256 newSalesCloseOffset) external onlyAdmin {\r\n        require(newCancellationOffset < newDrawInterval, \"Cancellation deadline offset must be less than the draw interval\");\r\n        require(newSalesCloseOffset < newDrawInterval, \"Sales close time offset must be less than the draw interval\");\r\n        require(newCancellationOffset > newSalesCloseOffset, \"Cancellation deadline offset must be greater than sales close time offset\");\r\n\r\n        drawInterval = newDrawInterval;\r\n        cancellationDeadlineOffset = newCancellationOffset;\r\n        salesCloseTimeOffset = newSalesCloseOffset;\r\n    }\r\n\r\n    // Admin function to adjust developer fee percentage\r\n    function setDeveloperFeePercentage(uint256 newDeveloperFeePercentage) external onlyAdmin {\r\n        require(newDeveloperFeePercentage <= 20, \"Developer fee percentage must be <= 20%\");\r\n        developerFeePercentage = newDeveloperFeePercentage;\r\n    }\r\n\r\n    // Admin function to adjust prize percentages for 1st, 2nd, and 3rd prizes\r\n    function setPrizePercentages(uint256 newFirstPrizePercentage, uint256 newSecondPrizePercentage, uint256 newThirdPrizePercentage) external onlyAdmin {\r\n        require(newFirstPrizePercentage > 0 && newSecondPrizePercentage > 0 && newThirdPrizePercentage > 0, \"Each prize percentage must be greater than 0\");\r\n        require(newFirstPrizePercentage > newSecondPrizePercentage, \"First prize percentage must be greater than second prize\");\r\n        require(newSecondPrizePercentage > newThirdPrizePercentage, \"Second prize percentage must be greater than third prize\");\r\n        require(newFirstPrizePercentage + newSecondPrizePercentage + newThirdPrizePercentage == 100, \"Prize percentages must add up to 100%\");\r\n\r\n        firstPrizePercentage = newFirstPrizePercentage;\r\n        secondPrizePercentage = newSecondPrizePercentage;\r\n        thirdPrizePercentage = newThirdPrizePercentage;\r\n    }\r\n\r\n    // Function to buy a ticket\r\n    function buyTicket(uint256 ticketNumber) external payable {\r\n        require(block.timestamp < salesCloseTime, \"Sales have closed for this draw\");\r\n        require(msg.value == ticketPrice, \"Incorrect ticket price\");\r\n        require(userTickets[drawId][msg.sender].length < 5, \"Ticket purchase limit reached\");\r\n        require(ticketNumber >= 0 && ticketNumber <= 9999, \"Ticket number must be a 4-digit number\");\r\n        require(!_hasUserPurchasedTicket(msg.sender, ticketNumber), \"You have already purchased this ticket number.\");\r\n\r\n        // Add the ticket to the user's tickets and ticketOwners\r\n        userTickets[drawId][msg.sender].push(ticketNumber);\r\n        ticketOwners[drawId][ticketNumber].push(msg.sender);\r\n\r\n        // If this is the user's first ticket, increase the unique participant count\r\n        if (userTickets[drawId][msg.sender].length == 1) {\r\n            participants[drawId].push(msg.sender);\r\n            participantIndex[drawId][msg.sender] = uniqueParticipantsCount;\r\n            uniqueParticipantsCount++;\r\n        }\r\n\r\n        emit TicketPurchased(msg.sender, ticketNumber, drawId);\r\n    }\r\n\r\n    // Function to cancel a purchased ticket\r\n    function cancelTicket(uint256 ticketNumber) external {\r\n        require(block.timestamp < cancellationDeadline, \"Cancellation period is over\");\r\n        require(_hasUserPurchasedTicket(msg.sender, ticketNumber), \"You don't own this ticket\");\r\n\r\n        _removeUserTicket(msg.sender, ticketNumber);\r\n        _removeTicketOwner(ticketNumber, msg.sender);\r\n\r\n        // Remove the participant and adjust the unique participant count if the user has no more tickets\r\n        if (userTickets[drawId][msg.sender].length == 0) {\r\n            uint256 index = participantIndex[drawId][msg.sender]; // Get the participant's index\r\n            if (uniqueParticipantsCount == 1) {\r\n                // If there's only one participant, simply pop the array\r\n                participants[drawId].pop(); // Remove the only participant\r\n            } else {\r\n                participants[drawId][index] = participants[drawId][uniqueParticipantsCount - 1]; // Replace with last element\r\n                participantIndex[drawId][participants[drawId][index]] = index; // Update the index of the swapped participant\r\n                participants[drawId].pop(); // Remove the last element\r\n            }\r\n            delete participantIndex[drawId][msg.sender]; // Remove from mapping\r\n            uniqueParticipantsCount--;\r\n        }\r\n\r\n        // Calculate the refund (90% refund, 10% to the developer)\r\n        uint256 refundAmount = (ticketPrice * 90) / 100;\r\n        uint256 developerFee = ticketPrice - refundAmount;\r\n\r\n        // Transfer the refund to the user\r\n        payable(msg.sender).transfer(refundAmount);\r\n\r\n        // Send the 10% penalty to the developer\r\n        payable(developer).transfer(developerFee);\r\n\r\n        emit TicketCancelled(msg.sender, ticketNumber, refundAmount, drawId);\r\n    }\r\n\r\n    // Function to execute the lottery draw\r\n    function executeDraw() external onlyAdmin canExecuteDraw {\r\n        // Generate the winning numbers using block properties\r\n        firstPrizeNumber = _generateRandomNumber(1);\r\n        secondPrizeNumber = _generateRandomNumber(2);\r\n        thirdPrizeNumber = _generateRandomNumber(3);\r\n\r\n        // Emit event to record the draw results\r\n        emit DrawExecuted(firstPrizeNumber, secondPrizeNumber, thirdPrizeNumber, drawId);\r\n\r\n        // Distribute prizes immediately after draw\r\n        _distributePrizes();\r\n\r\n        // Update the draw time for the next draw\r\n        lastDrawTime = block.timestamp;\r\n        _resetForNextDraw(); // Reset and schedule for next draw\r\n    }\r\n\r\n    // Function to cancel the draw if fewer than 3 participants\r\n    function cancelDraw() external onlyAdmin {\r\n        require(block.timestamp >= salesCloseTime, \"Draw can only be cancelled after sales close.\");\r\n        require(uniqueParticipantsCount < 3, \"Cannot cancel draw: 3 or more participants\");\r\n\r\n        if (uniqueParticipantsCount > 0) {\r\n            // Refund all participants and cancel the draw\r\n            _refundAllParticipants();\r\n        }\r\n\r\n        lastDrawTime = block.timestamp; // Set lastDrawTime to cancellation time\r\n        _resetForNextDraw(); // Reset and schedule for next draw\r\n    }\r\n\r\n    // Helper function to update times for the next draw\r\n    function _resetForNextDraw() private {\r\n        cancellationDeadline = lastDrawTime + drawInterval - cancellationDeadlineOffset;\r\n        salesCloseTime = lastDrawTime + drawInterval - salesCloseTimeOffset;\r\n        uniqueParticipantsCount = 0;\r\n        drawId++;\r\n    }\r\n\r\n    // Function to generate a random 4-digit number using block properties\r\n    function _generateRandomNumber(uint256 seed) private view returns (uint256) {\r\n        return uint256(keccak256(abi.encodePacked(block.timestamp, block.difficulty, msg.sender, uniqueParticipantsCount, seed))) % 10000;\r\n    }\r\n\r\n    // Function to refund all participants if the draw is cancelled\r\n    function _refundAllParticipants() private {\r\n        // Loop through all participants and refund them\r\n        for (uint256 i = 0; i < uniqueParticipantsCount; i++) {\r\n            address participant = participants[drawId][i];\r\n            uint256 refundAmount = ticketPrice * userTickets[drawId][participant].length;\r\n            payable(participant).transfer(refundAmount); // Refund the user\r\n        }\r\n    }\r\n\r\n    // Helper function to distribute prizes\r\n    function _distributePrizes() private {\r\n        // Calculate the amounts for each prize tier after developer fee\r\n        uint256 contractBalance = address(this).balance;\r\n\r\n        uint256 developerFee = (contractBalance * developerFeePercentage) / 100;\r\n        uint256 prizePoolAfterFee = contractBalance - developerFee;\r\n\r\n        uint256 firstPrizeAmount = (prizePoolAfterFee * firstPrizePercentage) / 100;\r\n        uint256 secondPrizeAmount = (prizePoolAfterFee * secondPrizePercentage) / 100;\r\n        uint256 thirdPrizeAmount = (prizePoolAfterFee * thirdPrizePercentage) / 100;\r\n\r\n        // Transfer developer fee\r\n        payable(developer).transfer(developerFee);\r\n\r\n        // Distribute prizes\r\n        _distributePrizeTier(firstPrizeNumber, firstPrizeAmount, 1);\r\n        _distributePrizeTier(secondPrizeNumber, secondPrizeAmount, 2);\r\n        _distributePrizeTier(thirdPrizeNumber, thirdPrizeAmount, 3);\r\n    }\r\n\r\n    // Helper function to check if there are winners for any of the three prize numbers\r\n    function _hasWinners(uint256 prizeNumber1, uint256 prizeNumber2, uint256 prizeNumber3) private view returns (bool) {\r\n        return (\r\n            ticketOwners[drawId][prizeNumber1].length > 0 || \r\n            ticketOwners[drawId][prizeNumber2].length > 0 || \r\n            ticketOwners[drawId][prizeNumber3].length > 0\r\n        );\r\n    }\r\n\r\n    // Helper function to distribute prizes to a prize tier\r\n    function _distributePrizeTier(uint256 prizeNumber, uint256 prizeAmount, uint256 prizeTier) private {\r\n        address[] memory winners = ticketOwners[drawId][prizeNumber];\r\n        uint256 winnerCount = winners.length;\r\n\r\n        if (winnerCount > 0) {\r\n            uint256 prizePerWinner = prizeAmount / winnerCount;\r\n\r\n            for (uint256 i = 0; i < winnerCount; i++) {\r\n                payable(winners[i]).transfer(prizePerWinner);\r\n            }\r\n        }\r\n\r\n        emit PrizeTierDistributed(drawId, prizeTier, prizeAmount, winnerCount);\r\n    }\r\n\r\n    // Helper function to check if a user has purchased a specific ticket number\r\n    function _hasUserPurchasedTicket(address user, uint256 ticketNumber) private view returns (bool) {\r\n        uint256[] memory tickets = userTickets[drawId][user];\r\n\r\n        for (uint256 i = 0; i < tickets.length; i++) {\r\n            if (tickets[i] == ticketNumber) {\r\n                return true;\r\n            }\r\n        }\r\n        return false;\r\n    }\r\n\r\n    // Helper function to remove a ticket from the user's ticket array\r\n    function _removeUserTicket(address user, uint256 ticketNumber) private {\r\n        uint256[] storage tickets = userTickets[drawId][user];\r\n        uint256 length = tickets.length;\r\n\r\n        for (uint256 i = 0; i < length; i++) {\r\n            if (tickets[i] == ticketNumber) {\r\n                tickets[i] = tickets[length - 1]; // Replace with last element\r\n                tickets.pop(); // Remove the last element\r\n                break;\r\n            }\r\n        }\r\n    }\r\n\r\n    // Helper function to remove a user from the ticketOwners mapping for a specific ticket number\r\n    function _removeTicketOwner(uint256 ticketNumber, address user) private {\r\n        address[] storage owners = ticketOwners[drawId][ticketNumber];\r\n        uint256 length = owners.length;\r\n\r\n        for (uint256 i = 0; i < length; i++) {\r\n            if (owners[i] == user) {\r\n                owners[i] = owners[length - 1]; // Replace with last element\r\n                owners.pop(); // Remove the last element\r\n                break;\r\n            }\r\n        }\r\n    }\r\n\r\n    // Helper function to get the number of tickets a user owns in a particular draw\r\n    function getUserTicketCount(address _user) public view returns (uint256) {\r\n        return userTickets[drawId][_user].length;\r\n    }\r\n}\r\n",
  "sourcePath": "C:\\Users\\Pua\\OneDrive\\Desktop\\LotteryTimeLockDApp\\contracts\\LotteryDApp.sol",
  "compiler": {
    "name": "solc",
    "version": "0.8.0+commit.c7dfd78e.Emscripten.clang"
  },
  "schemaVersion": "3.4.16",
  "updatedAt": "2024-09-17T06:18:37.821Z",
  "networkType": "ethereum",
  "devdoc": {
    "kind": "dev",
    "methods": {},
    "version": 1
  },
  "userdoc": {
    "kind": "user",
    "methods": {},
    "version": 1
  }
}